{
  "_format": "hh-sol-artifact-1",
  "contractName": "CrimeRecordNFT",
  "sourceName": "contracts/CrimeRecordNFT.sol",
  "abi": [
    {
      "inputs": [],
      "stateMutability": "nonpayable",
      "type": "constructor"
    },
    {
      "inputs": [
        {
          "internalType": "address",
          "name": "sender",
          "type": "address"
        },
        {
          "internalType": "uint256",
          "name": "tokenId",
          "type": "uint256"
        },
        {
          "internalType": "address",
          "name": "owner",
          "type": "address"
        }
      ],
      "name": "ERC721IncorrectOwner",
      "type": "error"
    },
    {
      "inputs": [
        {
          "internalType": "address",
          "name": "operator",
          "type": "address"
        },
        {
          "internalType": "uint256",
          "name": "tokenId",
          "type": "uint256"
        }
      ],
      "name": "ERC721InsufficientApproval",
      "type": "error"
    },
    {
      "inputs": [
        {
          "internalType": "address",
          "name": "approver",
          "type": "address"
        }
      ],
      "name": "ERC721InvalidApprover",
      "type": "error"
    },
    {
      "inputs": [
        {
          "internalType": "address",
          "name": "operator",
          "type": "address"
        }
      ],
      "name": "ERC721InvalidOperator",
      "type": "error"
    },
    {
      "inputs": [
        {
          "internalType": "address",
          "name": "owner",
          "type": "address"
        }
      ],
      "name": "ERC721InvalidOwner",
      "type": "error"
    },
    {
      "inputs": [
        {
          "internalType": "address",
          "name": "receiver",
          "type": "address"
        }
      ],
      "name": "ERC721InvalidReceiver",
      "type": "error"
    },
    {
      "inputs": [
        {
          "internalType": "address",
          "name": "sender",
          "type": "address"
        }
      ],
      "name": "ERC721InvalidSender",
      "type": "error"
    },
    {
      "inputs": [
        {
          "internalType": "uint256",
          "name": "tokenId",
          "type": "uint256"
        }
      ],
      "name": "ERC721NonexistentToken",
      "type": "error"
    },
    {
      "inputs": [
        {
          "internalType": "address",
          "name": "owner",
          "type": "address"
        }
      ],
      "name": "OwnableInvalidOwner",
      "type": "error"
    },
    {
      "inputs": [
        {
          "internalType": "address",
          "name": "account",
          "type": "address"
        }
      ],
      "name": "OwnableUnauthorizedAccount",
      "type": "error"
    },
    {
      "anonymous": false,
      "inputs": [
        {
          "indexed": true,
          "internalType": "address",
          "name": "owner",
          "type": "address"
        },
        {
          "indexed": true,
          "internalType": "address",
          "name": "approved",
          "type": "address"
        },
        {
          "indexed": true,
          "internalType": "uint256",
          "name": "tokenId",
          "type": "uint256"
        }
      ],
      "name": "Approval",
      "type": "event"
    },
    {
      "anonymous": false,
      "inputs": [
        {
          "indexed": true,
          "internalType": "address",
          "name": "owner",
          "type": "address"
        },
        {
          "indexed": true,
          "internalType": "address",
          "name": "operator",
          "type": "address"
        },
        {
          "indexed": false,
          "internalType": "bool",
          "name": "approved",
          "type": "bool"
        }
      ],
      "name": "ApprovalForAll",
      "type": "event"
    },
    {
      "anonymous": false,
      "inputs": [
        {
          "indexed": true,
          "internalType": "uint256",
          "name": "crimeId",
          "type": "uint256"
        }
      ],
      "name": "CrimeRecordCreated",
      "type": "event"
    },
    {
      "anonymous": false,
      "inputs": [
        {
          "indexed": true,
          "internalType": "address",
          "name": "previousOwner",
          "type": "address"
        },
        {
          "indexed": true,
          "internalType": "address",
          "name": "newOwner",
          "type": "address"
        }
      ],
      "name": "OwnershipTransferred",
      "type": "event"
    },
    {
      "anonymous": false,
      "inputs": [
        {
          "indexed": true,
          "internalType": "address",
          "name": "from",
          "type": "address"
        },
        {
          "indexed": true,
          "internalType": "address",
          "name": "to",
          "type": "address"
        },
        {
          "indexed": true,
          "internalType": "uint256",
          "name": "tokenId",
          "type": "uint256"
        }
      ],
      "name": "Transfer",
      "type": "event"
    },
    {
      "inputs": [
        {
          "internalType": "address",
          "name": "to",
          "type": "address"
        },
        {
          "internalType": "uint256",
          "name": "tokenId",
          "type": "uint256"
        }
      ],
      "name": "approve",
      "outputs": [],
      "stateMutability": "nonpayable",
      "type": "function"
    },
    {
      "inputs": [
        {
          "internalType": "uint256",
          "name": "tokenId",
          "type": "uint256"
        },
        {
          "internalType": "address",
          "name": "investigator",
          "type": "address"
        }
      ],
      "name": "assignToInvestigator",
      "outputs": [],
      "stateMutability": "nonpayable",
      "type": "function"
    },
    {
      "inputs": [
        {
          "internalType": "address",
          "name": "owner",
          "type": "address"
        }
      ],
      "name": "balanceOf",
      "outputs": [
        {
          "internalType": "uint256",
          "name": "",
          "type": "uint256"
        }
      ],
      "stateMutability": "view",
      "type": "function"
    },
    {
      "inputs": [
        {
          "internalType": "string",
          "name": "_crimeType",
          "type": "string"
        },
        {
          "internalType": "string",
          "name": "_details",
          "type": "string"
        },
        {
          "internalType": "string",
          "name": "_location",
          "type": "string"
        },
        {
          "internalType": "uint256[]",
          "name": "_victims",
          "type": "uint256[]"
        },
        {
          "internalType": "uint256[]",
          "name": "_suspects",
          "type": "uint256[]"
        },
        {
          "internalType": "uint256[]",
          "name": "_evidenceIds",
          "type": "uint256[]"
        },
        {
          "internalType": "string",
          "name": "_result",
          "type": "string"
        }
      ],
      "name": "createCrimeRecord",
      "outputs": [],
      "stateMutability": "nonpayable",
      "type": "function"
    },
    {
      "inputs": [
        {
          "internalType": "uint256",
          "name": "",
          "type": "uint256"
        }
      ],
      "name": "crimeRecords",
      "outputs": [
        {
          "internalType": "string",
          "name": "crimeType",
          "type": "string"
        },
        {
          "internalType": "string",
          "name": "details",
          "type": "string"
        },
        {
          "internalType": "string",
          "name": "location",
          "type": "string"
        },
        {
          "internalType": "uint256",
          "name": "id",
          "type": "uint256"
        },
        {
          "internalType": "string",
          "name": "result",
          "type": "string"
        },
        {
          "internalType": "address",
          "name": "reportedBy",
          "type": "address"
        },
        {
          "internalType": "address",
          "name": "assignedTo",
          "type": "address"
        },
        {
          "internalType": "uint256",
          "name": "timestamp",
          "type": "uint256"
        }
      ],
      "stateMutability": "view",
      "type": "function"
    },
    {
      "inputs": [],
      "name": "getAllCrimeRecords",
      "outputs": [
        {
          "components": [
            {
              "internalType": "string",
              "name": "crimeType",
              "type": "string"
            },
            {
              "internalType": "string",
              "name": "details",
              "type": "string"
            },
            {
              "internalType": "string",
              "name": "location",
              "type": "string"
            },
            {
              "internalType": "uint256",
              "name": "id",
              "type": "uint256"
            },
            {
              "internalType": "uint256[]",
              "name": "victims",
              "type": "uint256[]"
            },
            {
              "internalType": "uint256[]",
              "name": "suspects",
              "type": "uint256[]"
            },
            {
              "internalType": "uint256[]",
              "name": "evidenceIds",
              "type": "uint256[]"
            },
            {
              "internalType": "string",
              "name": "result",
              "type": "string"
            },
            {
              "internalType": "address",
              "name": "reportedBy",
              "type": "address"
            },
            {
              "internalType": "address",
              "name": "assignedTo",
              "type": "address"
            },
            {
              "internalType": "uint256",
              "name": "timestamp",
              "type": "uint256"
            }
          ],
          "internalType": "struct CrimeRecordNFT.CrimeRecord[]",
          "name": "",
          "type": "tuple[]"
        }
      ],
      "stateMutability": "view",
      "type": "function"
    },
    {
      "inputs": [
        {
          "internalType": "uint256",
          "name": "tokenId",
          "type": "uint256"
        }
      ],
      "name": "getApproved",
      "outputs": [
        {
          "internalType": "address",
          "name": "",
          "type": "address"
        }
      ],
      "stateMutability": "view",
      "type": "function"
    },
    {
      "inputs": [],
      "name": "getCrimeRecordCount",
      "outputs": [
        {
          "internalType": "uint256",
          "name": "",
          "type": "uint256"
        }
      ],
      "stateMutability": "view",
      "type": "function"
    },
    {
      "inputs": [
        {
          "internalType": "uint256",
          "name": "tokenId",
          "type": "uint256"
        }
      ],
      "name": "getCrimeRecordDetails",
      "outputs": [
        {
          "components": [
            {
              "internalType": "string",
              "name": "crimeType",
              "type": "string"
            },
            {
              "internalType": "string",
              "name": "details",
              "type": "string"
            },
            {
              "internalType": "string",
              "name": "location",
              "type": "string"
            },
            {
              "internalType": "uint256",
              "name": "id",
              "type": "uint256"
            },
            {
              "internalType": "uint256[]",
              "name": "victims",
              "type": "uint256[]"
            },
            {
              "internalType": "uint256[]",
              "name": "suspects",
              "type": "uint256[]"
            },
            {
              "internalType": "uint256[]",
              "name": "evidenceIds",
              "type": "uint256[]"
            },
            {
              "internalType": "string",
              "name": "result",
              "type": "string"
            },
            {
              "internalType": "address",
              "name": "reportedBy",
              "type": "address"
            },
            {
              "internalType": "address",
              "name": "assignedTo",
              "type": "address"
            },
            {
              "internalType": "uint256",
              "name": "timestamp",
              "type": "uint256"
            }
          ],
          "internalType": "struct CrimeRecordNFT.CrimeRecord",
          "name": "",
          "type": "tuple"
        }
      ],
      "stateMutability": "view",
      "type": "function"
    },
    {
      "inputs": [
        {
          "internalType": "address",
          "name": "owner",
          "type": "address"
        },
        {
          "internalType": "address",
          "name": "operator",
          "type": "address"
        }
      ],
      "name": "isApprovedForAll",
      "outputs": [
        {
          "internalType": "bool",
          "name": "",
          "type": "bool"
        }
      ],
      "stateMutability": "view",
      "type": "function"
    },
    {
      "inputs": [
        {
          "internalType": "uint256",
          "name": "crimeTokenId",
          "type": "uint256"
        },
        {
          "internalType": "uint256",
          "name": "evidenceTokenId",
          "type": "uint256"
        }
      ],
      "name": "linkEvidenceToCrime",
      "outputs": [],
      "stateMutability": "nonpayable",
      "type": "function"
    },
    {
      "inputs": [],
      "name": "name",
      "outputs": [
        {
          "internalType": "string",
          "name": "",
          "type": "string"
        }
      ],
      "stateMutability": "view",
      "type": "function"
    },
    {
      "inputs": [],
      "name": "owner",
      "outputs": [
        {
          "internalType": "address",
          "name": "",
          "type": "address"
        }
      ],
      "stateMutability": "view",
      "type": "function"
    },
    {
      "inputs": [
        {
          "internalType": "uint256",
          "name": "tokenId",
          "type": "uint256"
        }
      ],
      "name": "ownerOf",
      "outputs": [
        {
          "internalType": "address",
          "name": "",
          "type": "address"
        }
      ],
      "stateMutability": "view",
      "type": "function"
    },
    {
      "inputs": [],
      "name": "renounceOwnership",
      "outputs": [],
      "stateMutability": "nonpayable",
      "type": "function"
    },
    {
      "inputs": [
        {
          "internalType": "address",
          "name": "from",
          "type": "address"
        },
        {
          "internalType": "address",
          "name": "to",
          "type": "address"
        },
        {
          "internalType": "uint256",
          "name": "tokenId",
          "type": "uint256"
        }
      ],
      "name": "safeTransferFrom",
      "outputs": [],
      "stateMutability": "nonpayable",
      "type": "function"
    },
    {
      "inputs": [
        {
          "internalType": "address",
          "name": "from",
          "type": "address"
        },
        {
          "internalType": "address",
          "name": "to",
          "type": "address"
        },
        {
          "internalType": "uint256",
          "name": "tokenId",
          "type": "uint256"
        },
        {
          "internalType": "bytes",
          "name": "data",
          "type": "bytes"
        }
      ],
      "name": "safeTransferFrom",
      "outputs": [],
      "stateMutability": "nonpayable",
      "type": "function"
    },
    {
      "inputs": [
        {
          "internalType": "address",
          "name": "operator",
          "type": "address"
        },
        {
          "internalType": "bool",
          "name": "approved",
          "type": "bool"
        }
      ],
      "name": "setApprovalForAll",
      "outputs": [],
      "stateMutability": "nonpayable",
      "type": "function"
    },
    {
      "inputs": [
        {
          "internalType": "bytes4",
          "name": "interfaceId",
          "type": "bytes4"
        }
      ],
      "name": "supportsInterface",
      "outputs": [
        {
          "internalType": "bool",
          "name": "",
          "type": "bool"
        }
      ],
      "stateMutability": "view",
      "type": "function"
    },
    {
      "inputs": [],
      "name": "symbol",
      "outputs": [
        {
          "internalType": "string",
          "name": "",
          "type": "string"
        }
      ],
      "stateMutability": "view",
      "type": "function"
    },
    {
      "inputs": [
        {
          "internalType": "uint256",
          "name": "tokenId",
          "type": "uint256"
        }
      ],
      "name": "tokenURI",
      "outputs": [
        {
          "internalType": "string",
          "name": "",
          "type": "string"
        }
      ],
      "stateMutability": "view",
      "type": "function"
    },
    {
      "inputs": [
        {
          "internalType": "address",
          "name": "from",
          "type": "address"
        },
        {
          "internalType": "address",
          "name": "to",
          "type": "address"
        },
        {
          "internalType": "uint256",
          "name": "tokenId",
          "type": "uint256"
        }
      ],
      "name": "transferFrom",
      "outputs": [],
      "stateMutability": "nonpayable",
      "type": "function"
    },
    {
      "inputs": [
        {
          "internalType": "address",
          "name": "newOwner",
          "type": "address"
        }
      ],
      "name": "transferOwnership",
      "outputs": [],
      "stateMutability": "nonpayable",
      "type": "function"
    },
    {
      "inputs": [
        {
          "internalType": "uint256",
          "name": "tokenId",
          "type": "uint256"
        },
        {
          "internalType": "string",
          "name": "_details",
          "type": "string"
        },
        {
          "internalType": "string",
          "name": "_result",
          "type": "string"
        }
      ],
      "name": "updateCrimeRecord",
      "outputs": [],
      "stateMutability": "nonpayable",
      "type": "function"
    }
  ],
  "bytecode": "0x60806040523480156200001157600080fd5b50336040518060400160405280601081526020017f4372696d65205265636f7264204e4654000000000000000000000000000000008152506040518060400160405280600581526020017f4352494d4500000000000000000000000000000000000000000000000000000081525081600090816200009091906200047a565b508060019081620000a291906200047a565b505050600073ffffffffffffffffffffffffffffffffffffffff168173ffffffffffffffffffffffffffffffffffffffff16036200011a5760006040517f1e4fbdf7000000000000000000000000000000000000000000000000000000008152600401620001119190620005a6565b60405180910390fd5b6200012b816200013a60201b60201c565b506001600781905550620005c3565b6000600660009054906101000a900473ffffffffffffffffffffffffffffffffffffffff16905081600660006101000a81548173ffffffffffffffffffffffffffffffffffffffff021916908373ffffffffffffffffffffffffffffffffffffffff1602179055508173ffffffffffffffffffffffffffffffffffffffff168173ffffffffffffffffffffffffffffffffffffffff167f8be0079c531659141344cd1fd0a4f28419497f9722a3daafe3b4186f6b6457e060405160405180910390a35050565b600081519050919050565b7f4e487b7100000000000000000000000000000000000000000000000000000000600052604160045260246000fd5b7f4e487b7100000000000000000000000000000000000000000000000000000000600052602260045260246000fd5b600060028204905060018216806200028257607f821691505b6020821081036200029857620002976200023a565b5b50919050565b60008190508160005260206000209050919050565b60006020601f8301049050919050565b600082821b905092915050565b600060088302620003027fffffffffffffffffffffffffffffffffffffffffffffffffffffffffffffffff82620002c3565b6200030e8683620002c3565b95508019841693508086168417925050509392505050565b6000819050919050565b6000819050919050565b60006200035b620003556200034f8462000326565b62000330565b62000326565b9050919050565b6000819050919050565b62000377836200033a565b6200038f620003868262000362565b848454620002d0565b825550505050565b600090565b620003a662000397565b620003b38184846200036c565b505050565b5b81811015620003db57620003cf6000826200039c565b600181019050620003b9565b5050565b601f8211156200042a57620003f4816200029e565b620003ff84620002b3565b810160208510156200040f578190505b620004276200041e85620002b3565b830182620003b8565b50505b505050565b600082821c905092915050565b60006200044f600019846008026200042f565b1980831691505092915050565b60006200046a83836200043c565b9150826002028217905092915050565b620004858262000200565b67ffffffffffffffff811115620004a157620004a06200020b565b5b620004ad825462000269565b620004ba828285620003df565b600060209050601f831160018114620004f25760008415620004dd578287015190505b620004e985826200045c565b86555062000559565b601f19841662000502866200029e565b60005b828110156200052c5784890151825560018201915060208501945060208101905062000505565b868310156200054c578489015162000548601f8916826200043c565b8355505b6001600288020188555050505b505050505050565b600073ffffffffffffffffffffffffffffffffffffffff82169050919050565b60006200058e8262000561565b9050919050565b620005a08162000581565b82525050565b6000602082019050620005bd600083018462000595565b92915050565b61427b80620005d36000396000f3fe608060405234801561001057600080fd5b50600436106101585760003560e01c8063509e444f116100c357806395d89b411161007c57806395d89b41146103ca578063a22cb465146103e8578063b88d4fde14610404578063c87b56dd14610420578063e985e9c514610450578063f2fde38b1461048057610158565b8063509e444f146102f657806359f6fa37146103125780636352211e1461034257806370a0823114610372578063715018a6146103a25780638da5cb5b146103ac57610158565b8063231c1edf11610115578063231c1edf1461023357806323b872dd1461024f5780632c64251e1461026b57806342842e0e146102875780634796539e146102a3578063484d24a9146102bf57610158565b806301ffc9a71461015d57806306fdde031461018d578063081812fc146101ab578063095ea7b3146101db5780630e7390cf146101f75780631795e6c814610215575b600080fd5b61017760048036038101906101729190612c1c565b61049c565b6040516101849190612c64565b60405180910390f35b61019561057e565b6040516101a29190612d0f565b60405180910390f35b6101c560048036038101906101c09190612d67565b610610565b6040516101d29190612dd5565b60405180910390f35b6101f560048036038101906101f09190612e1c565b61062c565b005b6101ff610642565b60405161020c919061314e565b60405180910390f35b61021d610b22565b60405161022a919061317f565b60405180910390f35b61024d60048036038101906102489190613397565b610b38565b005b610269600480360381019061026491906134fd565b610d83565b005b61028560048036038101906102809190613550565b610e85565b005b6102a1600480360381019061029c91906134fd565b610f50565b005b6102bd60048036038101906102b891906135db565b610f70565b005b6102d960048036038101906102d49190612d67565b611047565b6040516102ed98979695949392919061361b565b60405180910390f35b610310600480360381019061030b91906136b5565b6112ef565b005b61032c60048036038101906103279190612d67565b611425565b604051610339919061380e565b60405180910390f35b61035c60048036038101906103579190612d67565b6118e0565b6040516103699190612dd5565b60405180910390f35b61038c60048036038101906103879190613830565b6118f2565b604051610399919061317f565b60405180910390f35b6103aa6119ac565b005b6103b46119c0565b6040516103c19190612dd5565b60405180910390f35b6103d26119ea565b6040516103df9190612d0f565b60405180910390f35b61040260048036038101906103fd9190613889565b611a7c565b005b61041e6004803603810190610419919061396a565b611a92565b005b61043a60048036038101906104359190612d67565b611aaf565b6040516104479190612d0f565b60405180910390f35b61046a600480360381019061046591906139ed565b611b18565b6040516104779190612c64565b60405180910390f35b61049a60048036038101906104959190613830565b611bac565b005b60007f80ac58cd000000000000000000000000000000000000000000000000000000007bffffffffffffffffffffffffffffffffffffffffffffffffffffffff1916827bffffffffffffffffffffffffffffffffffffffffffffffffffffffff1916148061056757507f5b5e139f000000000000000000000000000000000000000000000000000000007bffffffffffffffffffffffffffffffffffffffffffffffffffffffff1916827bffffffffffffffffffffffffffffffffffffffffffffffffffffffff1916145b80610577575061057682611c32565b5b9050919050565b60606000805461058d90613a5c565b80601f01602080910402602001604051908101604052809291908181526020018280546105b990613a5c565b80156106065780601f106105db57610100808354040283529160200191610606565b820191906000526020600020905b8154815290600101906020018083116105e957829003601f168201915b5050505050905090565b600061061b82611c9c565b5061062582611d24565b9050919050565b61063e8282610639611d61565b611d69565b5050565b6060600060075467ffffffffffffffff811115610662576106616131a4565b5b60405190808252806020026020018201604052801561069b57816020015b610688612ac0565b8152602001906001900390816106805790505b5090506000600190505b6007548111610b1a5760086000828152602001908152602001600020604051806101600160405290816000820180546106dd90613a5c565b80601f016020809104026020016040519081016040528092919081815260200182805461070990613a5c565b80156107565780601f1061072b57610100808354040283529160200191610756565b820191906000526020600020905b81548152906001019060200180831161073957829003601f168201915b5050505050815260200160018201805461076f90613a5c565b80601f016020809104026020016040519081016040528092919081815260200182805461079b90613a5c565b80156107e85780601f106107bd576101008083540402835291602001916107e8565b820191906000526020600020905b8154815290600101906020018083116107cb57829003601f168201915b5050505050815260200160028201805461080190613a5c565b80601f016020809104026020016040519081016040528092919081815260200182805461082d90613a5c565b801561087a5780601f1061084f5761010080835404028352916020019161087a565b820191906000526020600020905b81548152906001019060200180831161085d57829003601f168201915b5050505050815260200160038201548152602001600482018054806020026020016040519081016040528092919081815260200182805480156108dc57602002820191906000526020600020905b8154815260200190600101908083116108c8575b505050505081526020016005820180548060200260200160405190810160405280929190818152602001828054801561093457602002820191906000526020600020905b815481526020019060010190808311610920575b505050505081526020016006820180548060200260200160405190810160405280929190818152602001828054801561098c57602002820191906000526020600020905b815481526020019060010190808311610978575b505050505081526020016007820180546109a590613a5c565b80601f01602080910402602001604051908101604052809291908181526020018280546109d190613a5c565b8015610a1e5780601f106109f357610100808354040283529160200191610a1e565b820191906000526020600020905b815481529060010190602001808311610a0157829003601f168201915b505050505081526020016008820160009054906101000a900473ffffffffffffffffffffffffffffffffffffffff1673ffffffffffffffffffffffffffffffffffffffff1673ffffffffffffffffffffffffffffffffffffffff1681526020016009820160009054906101000a900473ffffffffffffffffffffffffffffffffffffffff1673ffffffffffffffffffffffffffffffffffffffff1673ffffffffffffffffffffffffffffffffffffffff168152602001600a8201548152505082600183610aeb9190613abc565b81518110610afc57610afb613af0565b5b60200260200101819052508080610b1290613b1f565b9150506106a5565b508091505090565b60006001600754610b339190613abc565b905090565b610b40611d7b565b60006007549050610b513382611e02565b6040518061016001604052808981526020018881526020018781526020018281526020018681526020018581526020018481526020018381526020013373ffffffffffffffffffffffffffffffffffffffff168152602001600073ffffffffffffffffffffffffffffffffffffffff16815260200142815250600860008381526020019081526020016000206000820151816000019081610bf29190613d13565b506020820151816001019081610c089190613d13565b506040820151816002019081610c1e9190613d13565b50606082015181600301556080820151816004019080519060200190610c45929190612b46565b5060a0820151816005019080519060200190610c62929190612b46565b5060c0820151816006019080519060200190610c7f929190612b46565b5060e0820151816007019081610c959190613d13565b506101008201518160080160006101000a81548173ffffffffffffffffffffffffffffffffffffffff021916908373ffffffffffffffffffffffffffffffffffffffff1602179055506101208201518160090160006101000a81548173ffffffffffffffffffffffffffffffffffffffff021916908373ffffffffffffffffffffffffffffffffffffffff16021790555061014082015181600a0155905050807f1115101116f46ab67b35794ef39fa70833ade2ff9eff77314fe9cf7972c3744160405160405180910390a260076000815480929190610d7490613b1f565b91905055505050505050505050565b600073ffffffffffffffffffffffffffffffffffffffff168273ffffffffffffffffffffffffffffffffffffffff1603610df55760006040517f64a0ae92000000000000000000000000000000000000000000000000000000008152600401610dec9190612dd5565b60405180910390fd5b6000610e098383610e04611d61565b611efb565b90508373ffffffffffffffffffffffffffffffffffffffff168173ffffffffffffffffffffffffffffffffffffffff1614610e7f578382826040517f64283d7b000000000000000000000000000000000000000000000000000000008152600401610e7693929190613de5565b60405180910390fd5b50505050565b610e8d611d7b565b3373ffffffffffffffffffffffffffffffffffffffff16610ead846118e0565b73ffffffffffffffffffffffffffffffffffffffff1614610f03576040517f08c379a0000000000000000000000000000000000000000000000000000000008152600401610efa90613e8e565b60405180910390fd5b81600860008581526020019081526020016000206001019081610f269190613d13565b5080600860008581526020019081526020016000206007019081610f4a9190613d13565b50505050565b610f6b83838360405180602001604052806000815250611a92565b505050565b610f78611d7b565b3373ffffffffffffffffffffffffffffffffffffffff16610f98836118e0565b73ffffffffffffffffffffffffffffffffffffffff1614610fee576040517f08c379a0000000000000000000000000000000000000000000000000000000008152600401610fe590613f20565b60405180910390fd5b806008600084815260200190815260200160002060090160006101000a81548173ffffffffffffffffffffffffffffffffffffffff021916908373ffffffffffffffffffffffffffffffffffffffff1602179055505050565b600860205280600052604060002060009150905080600001805461106a90613a5c565b80601f016020809104026020016040519081016040528092919081815260200182805461109690613a5c565b80156110e35780601f106110b8576101008083540402835291602001916110e3565b820191906000526020600020905b8154815290600101906020018083116110c657829003601f168201915b5050505050908060010180546110f890613a5c565b80601f016020809104026020016040519081016040528092919081815260200182805461112490613a5c565b80156111715780601f1061114657610100808354040283529160200191611171565b820191906000526020600020905b81548152906001019060200180831161115457829003601f168201915b50505050509080600201805461118690613a5c565b80601f01602080910402602001604051908101604052809291908181526020018280546111b290613a5c565b80156111ff5780601f106111d4576101008083540402835291602001916111ff565b820191906000526020600020905b8154815290600101906020018083116111e257829003601f168201915b50505050509080600301549080600701805461121a90613a5c565b80601f016020809104026020016040519081016040528092919081815260200182805461124690613a5c565b80156112935780601f1061126857610100808354040283529160200191611293565b820191906000526020600020905b81548152906001019060200180831161127657829003601f168201915b5050505050908060080160009054906101000a900473ffffffffffffffffffffffffffffffffffffffff16908060090160009054906101000a900473ffffffffffffffffffffffffffffffffffffffff169080600a0154905088565b6112f7611d7b565b3373ffffffffffffffffffffffffffffffffffffffff16611317836118e0565b73ffffffffffffffffffffffffffffffffffffffff161461136d576040517f08c379a000000000000000000000000000000000000000000000000000000000815260040161136490613fb2565b60405180910390fd5b600073ffffffffffffffffffffffffffffffffffffffff1661138e826118e0565b73ffffffffffffffffffffffffffffffffffffffff16036113e4576040517f08c379a00000000000000000000000000000000000000000000000000000000081526004016113db9061401e565b60405180910390fd5b600860008381526020019081526020016000206006018190806001815401808255809150506001900390600052602060002001600090919091909150555050565b61142d612ac0565b6000600860008481526020019081526020016000206040518061016001604052908160008201805461145e90613a5c565b80601f016020809104026020016040519081016040528092919081815260200182805461148a90613a5c565b80156114d75780601f106114ac576101008083540402835291602001916114d7565b820191906000526020600020905b8154815290600101906020018083116114ba57829003601f168201915b505050505081526020016001820180546114f090613a5c565b80601f016020809104026020016040519081016040528092919081815260200182805461151c90613a5c565b80156115695780601f1061153e57610100808354040283529160200191611569565b820191906000526020600020905b81548152906001019060200180831161154c57829003601f168201915b5050505050815260200160028201805461158290613a5c565b80601f01602080910402602001604051908101604052809291908181526020018280546115ae90613a5c565b80156115fb5780601f106115d0576101008083540402835291602001916115fb565b820191906000526020600020905b8154815290600101906020018083116115de57829003601f168201915b50505050508152602001600382015481526020016004820180548060200260200160405190810160405280929190818152602001828054801561165d57602002820191906000526020600020905b815481526020019060010190808311611649575b50505050508152602001600582018054806020026020016040519081016040528092919081815260200182805480156116b557602002820191906000526020600020905b8154815260200190600101908083116116a1575b505050505081526020016006820180548060200260200160405190810160405280929190818152602001828054801561170d57602002820191906000526020600020905b8154815260200190600101908083116116f9575b5050505050815260200160078201805461172690613a5c565b80601f016020809104026020016040519081016040528092919081815260200182805461175290613a5c565b801561179f5780601f106117745761010080835404028352916020019161179f565b820191906000526020600020905b81548152906001019060200180831161178257829003601f168201915b505050505081526020016008820160009054906101000a900473ffffffffffffffffffffffffffffffffffffffff1673ffffffffffffffffffffffffffffffffffffffff1673ffffffffffffffffffffffffffffffffffffffff1681526020016009820160009054906101000a900473ffffffffffffffffffffffffffffffffffffffff1673ffffffffffffffffffffffffffffffffffffffff1673ffffffffffffffffffffffffffffffffffffffff168152602001600a820154815250509050600073ffffffffffffffffffffffffffffffffffffffff16611881846118e0565b73ffffffffffffffffffffffffffffffffffffffff16036118d7576040517f08c379a00000000000000000000000000000000000000000000000000000000081526004016118ce9061408a565b60405180910390fd5b80915050919050565b60006118eb82611c9c565b9050919050565b60008073ffffffffffffffffffffffffffffffffffffffff168273ffffffffffffffffffffffffffffffffffffffff16036119655760006040517f89c62b6400000000000000000000000000000000000000000000000000000000815260040161195c9190612dd5565b60405180910390fd5b600360008373ffffffffffffffffffffffffffffffffffffffff1673ffffffffffffffffffffffffffffffffffffffff168152602001908152602001600020549050919050565b6119b4611d7b565b6119be6000612115565b565b6000600660009054906101000a900473ffffffffffffffffffffffffffffffffffffffff16905090565b6060600180546119f990613a5c565b80601f0160208091040260200160405190810160405280929190818152602001828054611a2590613a5c565b8015611a725780601f10611a4757610100808354040283529160200191611a72565b820191906000526020600020905b815481529060010190602001808311611a5557829003601f168201915b5050505050905090565b611a8e611a87611d61565b83836121db565b5050565b611a9d848484610d83565b611aa98484848461234a565b50505050565b6060611aba82611c9c565b506000611ac5612501565b90506000815111611ae55760405180602001604052806000815250611b10565b80611aef84612518565b604051602001611b009291906140e6565b6040516020818303038152906040525b915050919050565b6000600560008473ffffffffffffffffffffffffffffffffffffffff1673ffffffffffffffffffffffffffffffffffffffff16815260200190815260200160002060008373ffffffffffffffffffffffffffffffffffffffff1673ffffffffffffffffffffffffffffffffffffffff16815260200190815260200160002060009054906101000a900460ff16905092915050565b611bb4611d7b565b600073ffffffffffffffffffffffffffffffffffffffff168173ffffffffffffffffffffffffffffffffffffffff1603611c265760006040517f1e4fbdf7000000000000000000000000000000000000000000000000000000008152600401611c1d9190612dd5565b60405180910390fd5b611c2f81612115565b50565b60007f01ffc9a7000000000000000000000000000000000000000000000000000000007bffffffffffffffffffffffffffffffffffffffffffffffffffffffff1916827bffffffffffffffffffffffffffffffffffffffffffffffffffffffff1916149050919050565b600080611ca8836125e6565b9050600073ffffffffffffffffffffffffffffffffffffffff168173ffffffffffffffffffffffffffffffffffffffff1603611d1b57826040517f7e273289000000000000000000000000000000000000000000000000000000008152600401611d12919061317f565b60405180910390fd5b80915050919050565b60006004600083815260200190815260200160002060009054906101000a900473ffffffffffffffffffffffffffffffffffffffff169050919050565b600033905090565b611d768383836001612623565b505050565b611d83611d61565b73ffffffffffffffffffffffffffffffffffffffff16611da16119c0565b73ffffffffffffffffffffffffffffffffffffffff1614611e0057611dc4611d61565b6040517f118cdaa7000000000000000000000000000000000000000000000000000000008152600401611df79190612dd5565b60405180910390fd5b565b600073ffffffffffffffffffffffffffffffffffffffff168273ffffffffffffffffffffffffffffffffffffffff1603611e745760006040517f64a0ae92000000000000000000000000000000000000000000000000000000008152600401611e6b9190612dd5565b60405180910390fd5b6000611e8283836000611efb565b9050600073ffffffffffffffffffffffffffffffffffffffff168173ffffffffffffffffffffffffffffffffffffffff1614611ef65760006040517f73c6ac6e000000000000000000000000000000000000000000000000000000008152600401611eed9190612dd5565b60405180910390fd5b505050565b600080611f07846125e6565b9050600073ffffffffffffffffffffffffffffffffffffffff168373ffffffffffffffffffffffffffffffffffffffff1614611f4957611f488184866127e8565b5b600073ffffffffffffffffffffffffffffffffffffffff168173ffffffffffffffffffffffffffffffffffffffff1614611fda57611f8b600085600080612623565b6001600360008373ffffffffffffffffffffffffffffffffffffffff1673ffffffffffffffffffffffffffffffffffffffff168152602001908152602001600020600082825403925050819055505b600073ffffffffffffffffffffffffffffffffffffffff168573ffffffffffffffffffffffffffffffffffffffff161461205d576001600360008773ffffffffffffffffffffffffffffffffffffffff1673ffffffffffffffffffffffffffffffffffffffff168152602001908152602001600020600082825401925050819055505b846002600086815260200190815260200160002060006101000a81548173ffffffffffffffffffffffffffffffffffffffff021916908373ffffffffffffffffffffffffffffffffffffffff160217905550838573ffffffffffffffffffffffffffffffffffffffff168273ffffffffffffffffffffffffffffffffffffffff167fddf252ad1be2c89b69c2b068fc378daa952ba7f163c4a11628f55a4df523b3ef60405160405180910390a4809150509392505050565b6000600660009054906101000a900473ffffffffffffffffffffffffffffffffffffffff16905081600660006101000a81548173ffffffffffffffffffffffffffffffffffffffff021916908373ffffffffffffffffffffffffffffffffffffffff1602179055508173ffffffffffffffffffffffffffffffffffffffff168173ffffffffffffffffffffffffffffffffffffffff167f8be0079c531659141344cd1fd0a4f28419497f9722a3daafe3b4186f6b6457e060405160405180910390a35050565b600073ffffffffffffffffffffffffffffffffffffffff168273ffffffffffffffffffffffffffffffffffffffff160361224c57816040517f5b08ba180000000000000000000000000000000000000000000000000000000081526004016122439190612dd5565b60405180910390fd5b80600560008573ffffffffffffffffffffffffffffffffffffffff1673ffffffffffffffffffffffffffffffffffffffff16815260200190815260200160002060008473ffffffffffffffffffffffffffffffffffffffff1673ffffffffffffffffffffffffffffffffffffffff16815260200190815260200160002060006101000a81548160ff0219169083151502179055508173ffffffffffffffffffffffffffffffffffffffff168373ffffffffffffffffffffffffffffffffffffffff167f17307eab39ab6107e8899845ad3d59bd9653f200f220920489ca2b5937696c318360405161233d9190612c64565b60405180910390a3505050565b60008373ffffffffffffffffffffffffffffffffffffffff163b11156124fb578273ffffffffffffffffffffffffffffffffffffffff1663150b7a0261238e611d61565b8685856040518563ffffffff1660e01b81526004016123b0949392919061415f565b6020604051808303816000875af19250505080156123ec57506040513d601f19601f820116820180604052508101906123e991906141c0565b60015b612470573d806000811461241c576040519150601f19603f3d011682016040523d82523d6000602084013e612421565b606091505b50600081510361246857836040517f64a0ae9200000000000000000000000000000000000000000000000000000000815260040161245f9190612dd5565b60405180910390fd5b805181602001fd5b63150b7a0260e01b7bffffffffffffffffffffffffffffffffffffffffffffffffffffffff1916817bffffffffffffffffffffffffffffffffffffffffffffffffffffffff1916146124f957836040517f64a0ae920000000000000000000000000000000000000000000000000000000081526004016124f09190612dd5565b60405180910390fd5b505b50505050565b606060405180602001604052806000815250905090565b606060006001612527846128ac565b01905060008167ffffffffffffffff811115612546576125456131a4565b5b6040519080825280601f01601f1916602001820160405280156125785781602001600182028036833780820191505090505b509050600082602001820190505b6001156125db578080600190039150507f3031323334353637383961626364656600000000000000000000000000000000600a86061a8153600a85816125cf576125ce6141ed565b5b04945060008503612586575b819350505050919050565b60006002600083815260200190815260200160002060009054906101000a900473ffffffffffffffffffffffffffffffffffffffff169050919050565b808061265c5750600073ffffffffffffffffffffffffffffffffffffffff168273ffffffffffffffffffffffffffffffffffffffff1614155b1561279057600061266c84611c9c565b9050600073ffffffffffffffffffffffffffffffffffffffff168373ffffffffffffffffffffffffffffffffffffffff16141580156126d757508273ffffffffffffffffffffffffffffffffffffffff168173ffffffffffffffffffffffffffffffffffffffff1614155b80156126ea57506126e88184611b18565b155b1561272c57826040517fa9fbf51f0000000000000000000000000000000000000000000000000000000081526004016127239190612dd5565b60405180910390fd5b811561278e57838573ffffffffffffffffffffffffffffffffffffffff168273ffffffffffffffffffffffffffffffffffffffff167f8c5be1e5ebec7d5bd14f71427d1e84f3dd0314c0f7b2291e5b200ac8c7c3b92560405160405180910390a45b505b836004600085815260200190815260200160002060006101000a81548173ffffffffffffffffffffffffffffffffffffffff021916908373ffffffffffffffffffffffffffffffffffffffff16021790555050505050565b6127f38383836129ff565b6128a757600073ffffffffffffffffffffffffffffffffffffffff168373ffffffffffffffffffffffffffffffffffffffff160361286857806040517f7e27328900000000000000000000000000000000000000000000000000000000815260040161285f919061317f565b60405180910390fd5b81816040517f177e802f00000000000000000000000000000000000000000000000000000000815260040161289e92919061421c565b60405180910390fd5b505050565b600080600090507a184f03e93ff9f4daa797ed6e38ed64bf6a1f010000000000000000831061290a577a184f03e93ff9f4daa797ed6e38ed64bf6a1f0100000000000000008381612900576128ff6141ed565b5b0492506040810190505b6d04ee2d6d415b85acef81000000008310612947576d04ee2d6d415b85acef8100000000838161293d5761293c6141ed565b5b0492506020810190505b662386f26fc10000831061297657662386f26fc10000838161296c5761296b6141ed565b5b0492506010810190505b6305f5e100831061299f576305f5e1008381612995576129946141ed565b5b0492506008810190505b61271083106129c45761271083816129ba576129b96141ed565b5b0492506004810190505b606483106129e757606483816129dd576129dc6141ed565b5b0492506002810190505b600a83106129f6576001810190505b80915050919050565b60008073ffffffffffffffffffffffffffffffffffffffff168373ffffffffffffffffffffffffffffffffffffffff1614158015612ab757508273ffffffffffffffffffffffffffffffffffffffff168473ffffffffffffffffffffffffffffffffffffffff161480612a785750612a778484611b18565b5b80612ab657508273ffffffffffffffffffffffffffffffffffffffff16612a9e83611d24565b73ffffffffffffffffffffffffffffffffffffffff16145b5b90509392505050565b6040518061016001604052806060815260200160608152602001606081526020016000815260200160608152602001606081526020016060815260200160608152602001600073ffffffffffffffffffffffffffffffffffffffff168152602001600073ffffffffffffffffffffffffffffffffffffffff168152602001600081525090565b828054828255906000526020600020908101928215612b82579160200282015b82811115612b81578251825591602001919060010190612b66565b5b509050612b8f9190612b93565b5090565b5b80821115612bac576000816000905550600101612b94565b5090565b6000604051905090565b600080fd5b600080fd5b60007fffffffff0000000000000000000000000000000000000000000000000000000082169050919050565b612bf981612bc4565b8114612c0457600080fd5b50565b600081359050612c1681612bf0565b92915050565b600060208284031215612c3257612c31612bba565b5b6000612c4084828501612c07565b91505092915050565b60008115159050919050565b612c5e81612c49565b82525050565b6000602082019050612c796000830184612c55565b92915050565b600081519050919050565b600082825260208201905092915050565b60005b83811015612cb9578082015181840152602081019050612c9e565b60008484015250505050565b6000601f19601f8301169050919050565b6000612ce182612c7f565b612ceb8185612c8a565b9350612cfb818560208601612c9b565b612d0481612cc5565b840191505092915050565b60006020820190508181036000830152612d298184612cd6565b905092915050565b6000819050919050565b612d4481612d31565b8114612d4f57600080fd5b50565b600081359050612d6181612d3b565b92915050565b600060208284031215612d7d57612d7c612bba565b5b6000612d8b84828501612d52565b91505092915050565b600073ffffffffffffffffffffffffffffffffffffffff82169050919050565b6000612dbf82612d94565b9050919050565b612dcf81612db4565b82525050565b6000602082019050612dea6000830184612dc6565b92915050565b612df981612db4565b8114612e0457600080fd5b50565b600081359050612e1681612df0565b92915050565b60008060408385031215612e3357612e32612bba565b5b6000612e4185828601612e07565b9250506020612e5285828601612d52565b9150509250929050565b600081519050919050565b600082825260208201905092915050565b6000819050602082019050919050565b600082825260208201905092915050565b6000612ea482612c7f565b612eae8185612e88565b9350612ebe818560208601612c9b565b612ec781612cc5565b840191505092915050565b612edb81612d31565b82525050565b600081519050919050565b600082825260208201905092915050565b6000819050602082019050919050565b6000612f198383612ed2565b60208301905092915050565b6000602082019050919050565b6000612f3d82612ee1565b612f478185612eec565b9350612f5283612efd565b8060005b83811015612f83578151612f6a8882612f0d565b9750612f7583612f25565b925050600181019050612f56565b5085935050505092915050565b612f9981612db4565b82525050565b6000610160830160008301518482036000860152612fbd8282612e99565b91505060208301518482036020860152612fd78282612e99565b91505060408301518482036040860152612ff18282612e99565b91505060608301516130066060860182612ed2565b506080830151848203608086015261301e8282612f32565b91505060a083015184820360a08601526130388282612f32565b91505060c083015184820360c08601526130528282612f32565b91505060e083015184820360e086015261306c8282612e99565b915050610100830151613083610100860182612f90565b50610120830151613098610120860182612f90565b506101408301516130ad610140860182612ed2565b508091505092915050565b60006130c48383612f9f565b905092915050565b6000602082019050919050565b60006130e482612e5c565b6130ee8185612e67565b93508360208202850161310085612e78565b8060005b8581101561313c578484038952815161311d85826130b8565b9450613128836130cc565b925060208a01995050600181019050613104565b50829750879550505050505092915050565b6000602082019050818103600083015261316881846130d9565b905092915050565b61317981612d31565b82525050565b60006020820190506131946000830184613170565b92915050565b600080fd5b600080fd5b7f4e487b7100000000000000000000000000000000000000000000000000000000600052604160045260246000fd5b6131dc82612cc5565b810181811067ffffffffffffffff821117156131fb576131fa6131a4565b5b80604052505050565b600061320e612bb0565b905061321a82826131d3565b919050565b600067ffffffffffffffff82111561323a576132396131a4565b5b61324382612cc5565b9050602081019050919050565b82818337600083830152505050565b600061327261326d8461321f565b613204565b90508281526020810184848401111561328e5761328d61319f565b5b613299848285613250565b509392505050565b600082601f8301126132b6576132b561319a565b5b81356132c684826020860161325f565b91505092915050565b600067ffffffffffffffff8211156132ea576132e96131a4565b5b602082029050602081019050919050565b600080fd5b600061331361330e846132cf565b613204565b90508083825260208201905060208402830185811115613336576133356132fb565b5b835b8181101561335f578061334b8882612d52565b845260208401935050602081019050613338565b5050509392505050565b600082601f83011261337e5761337d61319a565b5b813561338e848260208601613300565b91505092915050565b600080600080600080600060e0888a0312156133b6576133b5612bba565b5b600088013567ffffffffffffffff8111156133d4576133d3612bbf565b5b6133e08a828b016132a1565b975050602088013567ffffffffffffffff81111561340157613400612bbf565b5b61340d8a828b016132a1565b965050604088013567ffffffffffffffff81111561342e5761342d612bbf565b5b61343a8a828b016132a1565b955050606088013567ffffffffffffffff81111561345b5761345a612bbf565b5b6134678a828b01613369565b945050608088013567ffffffffffffffff81111561348857613487612bbf565b5b6134948a828b01613369565b93505060a088013567ffffffffffffffff8111156134b5576134b4612bbf565b5b6134c18a828b01613369565b92505060c088013567ffffffffffffffff8111156134e2576134e1612bbf565b5b6134ee8a828b016132a1565b91505092959891949750929550565b60008060006060848603121561351657613515612bba565b5b600061352486828701612e07565b935050602061353586828701612e07565b925050604061354686828701612d52565b9150509250925092565b60008060006060848603121561356957613568612bba565b5b600061357786828701612d52565b935050602084013567ffffffffffffffff81111561359857613597612bbf565b5b6135a4868287016132a1565b925050604084013567ffffffffffffffff8111156135c5576135c4612bbf565b5b6135d1868287016132a1565b9150509250925092565b600080604083850312156135f2576135f1612bba565b5b600061360085828601612d52565b925050602061361185828601612e07565b9150509250929050565b6000610100820190508181036000830152613636818b612cd6565b9050818103602083015261364a818a612cd6565b9050818103604083015261365e8189612cd6565b905061366d6060830188613170565b818103608083015261367f8187612cd6565b905061368e60a0830186612dc6565b61369b60c0830185612dc6565b6136a860e0830184613170565b9998505050505050505050565b600080604083850312156136cc576136cb612bba565b5b60006136da85828601612d52565b92505060206136eb85828601612d52565b9150509250929050565b60006101608301600083015184820360008601526137138282612e99565b9150506020830151848203602086015261372d8282612e99565b915050604083015184820360408601526137478282612e99565b915050606083015161375c6060860182612ed2565b50608083015184820360808601526137748282612f32565b91505060a083015184820360a086015261378e8282612f32565b91505060c083015184820360c08601526137a88282612f32565b91505060e083015184820360e08601526137c28282612e99565b9150506101008301516137d9610100860182612f90565b506101208301516137ee610120860182612f90565b50610140830151613803610140860182612ed2565b508091505092915050565b6000602082019050818103600083015261382881846136f5565b905092915050565b60006020828403121561384657613845612bba565b5b600061385484828501612e07565b91505092915050565b61386681612c49565b811461387157600080fd5b50565b6000813590506138838161385d565b92915050565b600080604083850312156138a05761389f612bba565b5b60006138ae85828601612e07565b92505060206138bf85828601613874565b9150509250929050565b600067ffffffffffffffff8211156138e4576138e36131a4565b5b6138ed82612cc5565b9050602081019050919050565b600061390d613908846138c9565b613204565b9050828152602081018484840111156139295761392861319f565b5b613934848285613250565b509392505050565b600082601f8301126139515761395061319a565b5b81356139618482602086016138fa565b91505092915050565b6000806000806080858703121561398457613983612bba565b5b600061399287828801612e07565b94505060206139a387828801612e07565b93505060406139b487828801612d52565b925050606085013567ffffffffffffffff8111156139d5576139d4612bbf565b5b6139e18782880161393c565b91505092959194509250565b60008060408385031215613a0457613a03612bba565b5b6000613a1285828601612e07565b9250506020613a2385828601612e07565b9150509250929050565b7f4e487b7100000000000000000000000000000000000000000000000000000000600052602260045260246000fd5b60006002820490506001821680613a7457607f821691505b602082108103613a8757613a86613a2d565b5b50919050565b7f4e487b7100000000000000000000000000000000000000000000000000000000600052601160045260246000fd5b6000613ac782612d31565b9150613ad283612d31565b9250828203905081811115613aea57613ae9613a8d565b5b92915050565b7f4e487b7100000000000000000000000000000000000000000000000000000000600052603260045260246000fd5b6000613b2a82612d31565b91507fffffffffffffffffffffffffffffffffffffffffffffffffffffffffffffffff8203613b5c57613b5b613a8d565b5b600182019050919050565b60008190508160005260206000209050919050565b60006020601f8301049050919050565b600082821b905092915050565b600060088302613bc97fffffffffffffffffffffffffffffffffffffffffffffffffffffffffffffffff82613b8c565b613bd38683613b8c565b95508019841693508086168417925050509392505050565b6000819050919050565b6000613c10613c0b613c0684612d31565b613beb565b612d31565b9050919050565b6000819050919050565b613c2a83613bf5565b613c3e613c3682613c17565b848454613b99565b825550505050565b600090565b613c53613c46565b613c5e818484613c21565b505050565b5b81811015613c8257613c77600082613c4b565b600181019050613c64565b5050565b601f821115613cc757613c9881613b67565b613ca184613b7c565b81016020851015613cb0578190505b613cc4613cbc85613b7c565b830182613c63565b50505b505050565b600082821c905092915050565b6000613cea60001984600802613ccc565b1980831691505092915050565b6000613d038383613cd9565b9150826002028217905092915050565b613d1c82612c7f565b67ffffffffffffffff811115613d3557613d346131a4565b5b613d3f8254613a5c565b613d4a828285613c86565b600060209050601f831160018114613d7d5760008415613d6b578287015190505b613d758582613cf7565b865550613ddd565b601f198416613d8b86613b67565b60005b82811015613db357848901518255600182019150602085019450602081019050613d8e565b86831015613dd05784890151613dcc601f891682613cd9565b8355505b6001600288020188555050505b505050505050565b6000606082019050613dfa6000830186612dc6565b613e076020830185613170565b613e146040830184612dc6565b949350505050565b7f4f6e6c7920746865206f776e65722063616e207570646174652074686520726560008201527f636f726400000000000000000000000000000000000000000000000000000000602082015250565b6000613e78602483612c8a565b9150613e8382613e1c565b604082019050919050565b60006020820190508181036000830152613ea781613e6b565b9050919050565b7f4f6e6c7920746865206f776e65722063616e2061737369676e20746f20616e2060008201527f696e76657374696761746f720000000000000000000000000000000000000000602082015250565b6000613f0a602c83612c8a565b9150613f1582613eae565b604082019050919050565b60006020820190508181036000830152613f3981613efd565b9050919050565b7f4f6e6c7920746865206f776e65722063616e206c696e6b2065766964656e636560008201527f20746f20746865206372696d65207265636f7264000000000000000000000000602082015250565b6000613f9c603483612c8a565b9150613fa782613f40565b604082019050919050565b60006020820190508181036000830152613fcb81613f8f565b9050919050565b7f45766964656e636520646f6573206e6f74206578697374000000000000000000600082015250565b6000614008601783612c8a565b915061401382613fd2565b602082019050919050565b6000602082019050818103600083015261403781613ffb565b9050919050565b7f4372696d65207265636f726420646f6573206e6f742065786973740000000000600082015250565b6000614074601b83612c8a565b915061407f8261403e565b602082019050919050565b600060208201905081810360008301526140a381614067565b9050919050565b600081905092915050565b60006140c082612c7f565b6140ca81856140aa565b93506140da818560208601612c9b565b80840191505092915050565b60006140f282856140b5565b91506140fe82846140b5565b91508190509392505050565b600081519050919050565b600082825260208201905092915050565b60006141318261410a565b61413b8185614115565b935061414b818560208601612c9b565b61415481612cc5565b840191505092915050565b60006080820190506141746000830187612dc6565b6141816020830186612dc6565b61418e6040830185613170565b81810360608301526141a08184614126565b905095945050505050565b6000815190506141ba81612bf0565b92915050565b6000602082840312156141d6576141d5612bba565b5b60006141e4848285016141ab565b91505092915050565b7f4e487b7100000000000000000000000000000000000000000000000000000000600052601260045260246000fd5b60006040820190506142316000830185612dc6565b61423e6020830184613170565b939250505056fea264697066735822122015c947895eae23207a961a4330b92fd97d3f0ae0c00f0da44bfe443bcf111dd264736f6c63430008140033",
  "linkReferences": {},
  "deployedLinkReferences": {}
}