{
  "_format": "hh-sol-artifact-1",
  "contractName": "EvidenceNFT",
  "sourceName": "contracts/EvidenceNFT.sol",
  "abi": [
    {
      "inputs": [],
      "stateMutability": "nonpayable",
      "type": "constructor"
    },
    {
      "inputs": [
        {
          "internalType": "address",
          "name": "sender",
          "type": "address"
        },
        {
          "internalType": "uint256",
          "name": "tokenId",
          "type": "uint256"
        },
        {
          "internalType": "address",
          "name": "owner",
          "type": "address"
        }
      ],
      "name": "ERC721IncorrectOwner",
      "type": "error"
    },
    {
      "inputs": [
        {
          "internalType": "address",
          "name": "operator",
          "type": "address"
        },
        {
          "internalType": "uint256",
          "name": "tokenId",
          "type": "uint256"
        }
      ],
      "name": "ERC721InsufficientApproval",
      "type": "error"
    },
    {
      "inputs": [
        {
          "internalType": "address",
          "name": "approver",
          "type": "address"
        }
      ],
      "name": "ERC721InvalidApprover",
      "type": "error"
    },
    {
      "inputs": [
        {
          "internalType": "address",
          "name": "operator",
          "type": "address"
        }
      ],
      "name": "ERC721InvalidOperator",
      "type": "error"
    },
    {
      "inputs": [
        {
          "internalType": "address",
          "name": "owner",
          "type": "address"
        }
      ],
      "name": "ERC721InvalidOwner",
      "type": "error"
    },
    {
      "inputs": [
        {
          "internalType": "address",
          "name": "receiver",
          "type": "address"
        }
      ],
      "name": "ERC721InvalidReceiver",
      "type": "error"
    },
    {
      "inputs": [
        {
          "internalType": "address",
          "name": "sender",
          "type": "address"
        }
      ],
      "name": "ERC721InvalidSender",
      "type": "error"
    },
    {
      "inputs": [
        {
          "internalType": "uint256",
          "name": "tokenId",
          "type": "uint256"
        }
      ],
      "name": "ERC721NonexistentToken",
      "type": "error"
    },
    {
      "inputs": [
        {
          "internalType": "address",
          "name": "owner",
          "type": "address"
        }
      ],
      "name": "OwnableInvalidOwner",
      "type": "error"
    },
    {
      "inputs": [
        {
          "internalType": "address",
          "name": "account",
          "type": "address"
        }
      ],
      "name": "OwnableUnauthorizedAccount",
      "type": "error"
    },
    {
      "anonymous": false,
      "inputs": [
        {
          "indexed": true,
          "internalType": "address",
          "name": "owner",
          "type": "address"
        },
        {
          "indexed": true,
          "internalType": "address",
          "name": "approved",
          "type": "address"
        },
        {
          "indexed": true,
          "internalType": "uint256",
          "name": "tokenId",
          "type": "uint256"
        }
      ],
      "name": "Approval",
      "type": "event"
    },
    {
      "anonymous": false,
      "inputs": [
        {
          "indexed": true,
          "internalType": "address",
          "name": "owner",
          "type": "address"
        },
        {
          "indexed": true,
          "internalType": "address",
          "name": "operator",
          "type": "address"
        },
        {
          "indexed": false,
          "internalType": "bool",
          "name": "approved",
          "type": "bool"
        }
      ],
      "name": "ApprovalForAll",
      "type": "event"
    },
    {
      "anonymous": false,
      "inputs": [
        {
          "indexed": true,
          "internalType": "uint256",
          "name": "crimeId",
          "type": "uint256"
        }
      ],
      "name": "EvidenceCreated",
      "type": "event"
    },
    {
      "anonymous": false,
      "inputs": [
        {
          "indexed": true,
          "internalType": "address",
          "name": "previousOwner",
          "type": "address"
        },
        {
          "indexed": true,
          "internalType": "address",
          "name": "newOwner",
          "type": "address"
        }
      ],
      "name": "OwnershipTransferred",
      "type": "event"
    },
    {
      "anonymous": false,
      "inputs": [
        {
          "indexed": true,
          "internalType": "address",
          "name": "from",
          "type": "address"
        },
        {
          "indexed": true,
          "internalType": "address",
          "name": "to",
          "type": "address"
        },
        {
          "indexed": true,
          "internalType": "uint256",
          "name": "tokenId",
          "type": "uint256"
        }
      ],
      "name": "Transfer",
      "type": "event"
    },
    {
      "inputs": [
        {
          "internalType": "address",
          "name": "to",
          "type": "address"
        },
        {
          "internalType": "uint256",
          "name": "tokenId",
          "type": "uint256"
        }
      ],
      "name": "approve",
      "outputs": [],
      "stateMutability": "nonpayable",
      "type": "function"
    },
    {
      "inputs": [
        {
          "internalType": "address",
          "name": "owner",
          "type": "address"
        }
      ],
      "name": "balanceOf",
      "outputs": [
        {
          "internalType": "uint256",
          "name": "",
          "type": "uint256"
        }
      ],
      "stateMutability": "view",
      "type": "function"
    },
    {
      "inputs": [
        {
          "internalType": "string",
          "name": "_description",
          "type": "string"
        },
        {
          "internalType": "string",
          "name": "_location",
          "type": "string"
        }
      ],
      "name": "createEvidence",
      "outputs": [],
      "stateMutability": "nonpayable",
      "type": "function"
    },
    {
      "inputs": [
        {
          "internalType": "uint256",
          "name": "",
          "type": "uint256"
        }
      ],
      "name": "evidences",
      "outputs": [
        {
          "internalType": "string",
          "name": "description",
          "type": "string"
        },
        {
          "internalType": "string",
          "name": "location",
          "type": "string"
        },
        {
          "internalType": "address",
          "name": "collectedBy",
          "type": "address"
        },
        {
          "internalType": "uint256",
          "name": "timestamp",
          "type": "uint256"
        }
      ],
      "stateMutability": "view",
      "type": "function"
    },
    {
      "inputs": [
        {
          "internalType": "uint256",
          "name": "tokenId",
          "type": "uint256"
        }
      ],
      "name": "getApproved",
      "outputs": [
        {
          "internalType": "address",
          "name": "",
          "type": "address"
        }
      ],
      "stateMutability": "view",
      "type": "function"
    },
    {
      "inputs": [],
      "name": "getEvidenceCount",
      "outputs": [
        {
          "internalType": "uint256",
          "name": "",
          "type": "uint256"
        }
      ],
      "stateMutability": "view",
      "type": "function"
    },
    {
      "inputs": [
        {
          "internalType": "uint256",
          "name": "tokenId",
          "type": "uint256"
        }
      ],
      "name": "getEvidenceDetails",
      "outputs": [
        {
          "components": [
            {
              "internalType": "string",
              "name": "description",
              "type": "string"
            },
            {
              "internalType": "string",
              "name": "location",
              "type": "string"
            },
            {
              "internalType": "address",
              "name": "collectedBy",
              "type": "address"
            },
            {
              "internalType": "uint256",
              "name": "timestamp",
              "type": "uint256"
            }
          ],
          "internalType": "struct EvidenceNFT.Evidence",
          "name": "",
          "type": "tuple"
        }
      ],
      "stateMutability": "view",
      "type": "function"
    },
    {
      "inputs": [
        {
          "internalType": "address",
          "name": "owner",
          "type": "address"
        },
        {
          "internalType": "address",
          "name": "operator",
          "type": "address"
        }
      ],
      "name": "isApprovedForAll",
      "outputs": [
        {
          "internalType": "bool",
          "name": "",
          "type": "bool"
        }
      ],
      "stateMutability": "view",
      "type": "function"
    },
    {
      "inputs": [],
      "name": "name",
      "outputs": [
        {
          "internalType": "string",
          "name": "",
          "type": "string"
        }
      ],
      "stateMutability": "view",
      "type": "function"
    },
    {
      "inputs": [],
      "name": "owner",
      "outputs": [
        {
          "internalType": "address",
          "name": "",
          "type": "address"
        }
      ],
      "stateMutability": "view",
      "type": "function"
    },
    {
      "inputs": [
        {
          "internalType": "uint256",
          "name": "tokenId",
          "type": "uint256"
        }
      ],
      "name": "ownerOf",
      "outputs": [
        {
          "internalType": "address",
          "name": "",
          "type": "address"
        }
      ],
      "stateMutability": "view",
      "type": "function"
    },
    {
      "inputs": [],
      "name": "renounceOwnership",
      "outputs": [],
      "stateMutability": "nonpayable",
      "type": "function"
    },
    {
      "inputs": [
        {
          "internalType": "address",
          "name": "from",
          "type": "address"
        },
        {
          "internalType": "address",
          "name": "to",
          "type": "address"
        },
        {
          "internalType": "uint256",
          "name": "tokenId",
          "type": "uint256"
        }
      ],
      "name": "safeTransferFrom",
      "outputs": [],
      "stateMutability": "nonpayable",
      "type": "function"
    },
    {
      "inputs": [
        {
          "internalType": "address",
          "name": "from",
          "type": "address"
        },
        {
          "internalType": "address",
          "name": "to",
          "type": "address"
        },
        {
          "internalType": "uint256",
          "name": "tokenId",
          "type": "uint256"
        },
        {
          "internalType": "bytes",
          "name": "data",
          "type": "bytes"
        }
      ],
      "name": "safeTransferFrom",
      "outputs": [],
      "stateMutability": "nonpayable",
      "type": "function"
    },
    {
      "inputs": [
        {
          "internalType": "address",
          "name": "operator",
          "type": "address"
        },
        {
          "internalType": "bool",
          "name": "approved",
          "type": "bool"
        }
      ],
      "name": "setApprovalForAll",
      "outputs": [],
      "stateMutability": "nonpayable",
      "type": "function"
    },
    {
      "inputs": [
        {
          "internalType": "bytes4",
          "name": "interfaceId",
          "type": "bytes4"
        }
      ],
      "name": "supportsInterface",
      "outputs": [
        {
          "internalType": "bool",
          "name": "",
          "type": "bool"
        }
      ],
      "stateMutability": "view",
      "type": "function"
    },
    {
      "inputs": [],
      "name": "symbol",
      "outputs": [
        {
          "internalType": "string",
          "name": "",
          "type": "string"
        }
      ],
      "stateMutability": "view",
      "type": "function"
    },
    {
      "inputs": [
        {
          "internalType": "uint256",
          "name": "tokenId",
          "type": "uint256"
        }
      ],
      "name": "tokenURI",
      "outputs": [
        {
          "internalType": "string",
          "name": "",
          "type": "string"
        }
      ],
      "stateMutability": "view",
      "type": "function"
    },
    {
      "inputs": [
        {
          "internalType": "address",
          "name": "from",
          "type": "address"
        },
        {
          "internalType": "address",
          "name": "to",
          "type": "address"
        },
        {
          "internalType": "uint256",
          "name": "tokenId",
          "type": "uint256"
        }
      ],
      "name": "transferFrom",
      "outputs": [],
      "stateMutability": "nonpayable",
      "type": "function"
    },
    {
      "inputs": [
        {
          "internalType": "address",
          "name": "newOwner",
          "type": "address"
        }
      ],
      "name": "transferOwnership",
      "outputs": [],
      "stateMutability": "nonpayable",
      "type": "function"
    },
    {
      "inputs": [
        {
          "internalType": "uint256",
          "name": "tokenId",
          "type": "uint256"
        },
        {
          "internalType": "string",
          "name": "_description",
          "type": "string"
        },
        {
          "internalType": "string",
          "name": "_location",
          "type": "string"
        }
      ],
      "name": "updateEvidence",
      "outputs": [],
      "stateMutability": "nonpayable",
      "type": "function"
    }
  ],
  "bytecode": "0x608060405260016007553480156200001657600080fd5b50336040518060400160405280600c81526020017f45766964656e6365204e465400000000000000000000000000000000000000008152506040518060400160405280600881526020017f45564944454e4345000000000000000000000000000000000000000000000000815250816000908162000095919062000477565b508060019081620000a7919062000477565b505050600073ffffffffffffffffffffffffffffffffffffffff168173ffffffffffffffffffffffffffffffffffffffff16036200011f5760006040517f1e4fbdf7000000000000000000000000000000000000000000000000000000008152600401620001169190620005a3565b60405180910390fd5b62000130816200013760201b60201c565b50620005c0565b6000600660009054906101000a900473ffffffffffffffffffffffffffffffffffffffff16905081600660006101000a81548173ffffffffffffffffffffffffffffffffffffffff021916908373ffffffffffffffffffffffffffffffffffffffff1602179055508173ffffffffffffffffffffffffffffffffffffffff168173ffffffffffffffffffffffffffffffffffffffff167f8be0079c531659141344cd1fd0a4f28419497f9722a3daafe3b4186f6b6457e060405160405180910390a35050565b600081519050919050565b7f4e487b7100000000000000000000000000000000000000000000000000000000600052604160045260246000fd5b7f4e487b7100000000000000000000000000000000000000000000000000000000600052602260045260246000fd5b600060028204905060018216806200027f57607f821691505b60208210810362000295576200029462000237565b5b50919050565b60008190508160005260206000209050919050565b60006020601f8301049050919050565b600082821b905092915050565b600060088302620002ff7fffffffffffffffffffffffffffffffffffffffffffffffffffffffffffffffff82620002c0565b6200030b8683620002c0565b95508019841693508086168417925050509392505050565b6000819050919050565b6000819050919050565b600062000358620003526200034c8462000323565b6200032d565b62000323565b9050919050565b6000819050919050565b620003748362000337565b6200038c62000383826200035f565b848454620002cd565b825550505050565b600090565b620003a362000394565b620003b081848462000369565b505050565b5b81811015620003d857620003cc60008262000399565b600181019050620003b6565b5050565b601f8211156200042757620003f1816200029b565b620003fc84620002b0565b810160208510156200040c578190505b620004246200041b85620002b0565b830182620003b5565b50505b505050565b600082821c905092915050565b60006200044c600019846008026200042c565b1980831691505092915050565b600062000467838362000439565b9150826002028217905092915050565b6200048282620001fd565b67ffffffffffffffff8111156200049e576200049d62000208565b5b620004aa825462000266565b620004b7828285620003dc565b600060209050601f831160018114620004ef5760008415620004da578287015190505b620004e6858262000459565b86555062000556565b601f198416620004ff866200029b565b60005b82811015620005295784890151825560018201915060208501945060208101905062000502565b8683101562000549578489015162000545601f89168262000439565b8355505b6001600288020188555050505b505050505050565b600073ffffffffffffffffffffffffffffffffffffffff82169050919050565b60006200058b826200055e565b9050919050565b6200059d816200057e565b82525050565b6000602082019050620005ba600083018462000592565b92915050565b612dd780620005d06000396000f3fe608060405234801561001057600080fd5b50600436106101375760003560e01c80638169c611116100b8578063b88d4fde1161007c578063b88d4fde1461033b578063b8d4448714610357578063c87b56dd14610375578063cf816d60146103a5578063e985e9c5146103d5578063f2fde38b1461040557610137565b80638169c611146102ab5780638da5cb5b146102c757806395d89b41146102e5578063a22cb46514610303578063a4c047741461031f57610137565b80632e4546cd116100ff5780632e4546cd146101f257806342842e0e146102255780636352211e1461024157806370a0823114610271578063715018a6146102a157610137565b806301ffc9a71461013c57806306fdde031461016c578063081812fc1461018a578063095ea7b3146101ba57806323b872dd146101d6575b600080fd5b61015660048036038101906101519190611f0f565b610421565b6040516101639190611f57565b60405180910390f35b610174610503565b6040516101819190612002565b60405180910390f35b6101a4600480360381019061019f919061205a565b610595565b6040516101b191906120c8565b60405180910390f35b6101d460048036038101906101cf919061210f565b6105b1565b005b6101f060048036038101906101eb919061214f565b6105c7565b005b61020c6004803603810190610207919061205a565b6106c9565b60405161021c94939291906121b1565b60405180910390f35b61023f600480360381019061023a919061214f565b610829565b005b61025b6004803603810190610256919061205a565b610849565b60405161026891906120c8565b60405180910390f35b61028b60048036038101906102869190612204565b61085b565b6040516102989190612231565b60405180910390f35b6102a9610915565b005b6102c560048036038101906102c09190612381565b610929565b005b6102cf6109f4565b6040516102dc91906120c8565b60405180910390f35b6102ed610a1e565b6040516102fa9190612002565b60405180910390f35b61031d60048036038101906103189190612438565b610ab0565b005b61033960048036038101906103349190612478565b610ac6565b005b61035560048036038101906103509190612591565b610bf3565b005b61035f610c10565b60405161036c9190612231565b60405180910390f35b61038f600480360381019061038a919061205a565b610c26565b60405161039c9190612002565b60405180910390f35b6103bf60048036038101906103ba919061205a565b610c8f565b6040516103cc91906126e6565b60405180910390f35b6103ef60048036038101906103ea9190612708565b610ebd565b6040516103fc9190611f57565b60405180910390f35b61041f600480360381019061041a9190612204565b610f51565b005b60007f80ac58cd000000000000000000000000000000000000000000000000000000007bffffffffffffffffffffffffffffffffffffffffffffffffffffffff1916827bffffffffffffffffffffffffffffffffffffffffffffffffffffffff191614806104ec57507f5b5e139f000000000000000000000000000000000000000000000000000000007bffffffffffffffffffffffffffffffffffffffffffffffffffffffff1916827bffffffffffffffffffffffffffffffffffffffffffffffffffffffff1916145b806104fc57506104fb82610fd7565b5b9050919050565b60606000805461051290612777565b80601f016020809104026020016040519081016040528092919081815260200182805461053e90612777565b801561058b5780601f106105605761010080835404028352916020019161058b565b820191906000526020600020905b81548152906001019060200180831161056e57829003601f168201915b5050505050905090565b60006105a082611041565b506105aa826110c9565b9050919050565b6105c382826105be611106565b61110e565b5050565b600073ffffffffffffffffffffffffffffffffffffffff168273ffffffffffffffffffffffffffffffffffffffff16036106395760006040517f64a0ae9200000000000000000000000000000000000000000000000000000000815260040161063091906120c8565b60405180910390fd5b600061064d8383610648611106565b611120565b90508373ffffffffffffffffffffffffffffffffffffffff168173ffffffffffffffffffffffffffffffffffffffff16146106c3578382826040517f64283d7b0000000000000000000000000000000000000000000000000000000081526004016106ba939291906127a8565b60405180910390fd5b50505050565b60086020528060005260406000206000915090508060000180546106ec90612777565b80601f016020809104026020016040519081016040528092919081815260200182805461071890612777565b80156107655780601f1061073a57610100808354040283529160200191610765565b820191906000526020600020905b81548152906001019060200180831161074857829003601f168201915b50505050509080600101805461077a90612777565b80601f01602080910402602001604051908101604052809291908181526020018280546107a690612777565b80156107f35780601f106107c8576101008083540402835291602001916107f3565b820191906000526020600020905b8154815290600101906020018083116107d657829003601f168201915b5050505050908060020160009054906101000a900473ffffffffffffffffffffffffffffffffffffffff16908060030154905084565b61084483838360405180602001604052806000815250610bf3565b505050565b600061085482611041565b9050919050565b60008073ffffffffffffffffffffffffffffffffffffffff168273ffffffffffffffffffffffffffffffffffffffff16036108ce5760006040517f89c62b640000000000000000000000000000000000000000000000000000000081526004016108c591906120c8565b60405180910390fd5b600360008373ffffffffffffffffffffffffffffffffffffffff1673ffffffffffffffffffffffffffffffffffffffff168152602001908152602001600020549050919050565b61091d61133a565b61092760006113c1565b565b61093161133a565b3373ffffffffffffffffffffffffffffffffffffffff1661095184610849565b73ffffffffffffffffffffffffffffffffffffffff16146109a7576040517f08c379a000000000000000000000000000000000000000000000000000000000815260040161099e90612851565b60405180910390fd5b816008600085815260200190815260200160002060000190816109ca9190612a1d565b50806008600085815260200190815260200160002060010190816109ee9190612a1d565b50505050565b6000600660009054906101000a900473ffffffffffffffffffffffffffffffffffffffff16905090565b606060018054610a2d90612777565b80601f0160208091040260200160405190810160405280929190818152602001828054610a5990612777565b8015610aa65780601f10610a7b57610100808354040283529160200191610aa6565b820191906000526020600020905b815481529060010190602001808311610a8957829003601f168201915b5050505050905090565b610ac2610abb611106565b8383611487565b5050565b610ace61133a565b60006007549050610adf33826115f6565b60405180608001604052808481526020018381526020013373ffffffffffffffffffffffffffffffffffffffff16815260200142815250600860008381526020019081526020016000206000820151816000019081610b3e9190612a1d565b506020820151816001019081610b549190612a1d565b5060408201518160020160006101000a81548173ffffffffffffffffffffffffffffffffffffffff021916908373ffffffffffffffffffffffffffffffffffffffff16021790555060608201518160030155905050807fd29e6d552d6c43991a2f323bada04957abb3accbe72a8fe23ca801d2cfa480e460405160405180910390a260076000815480929190610be990612b1e565b9190505550505050565b610bfe8484846105c7565b610c0a848484846116ef565b50505050565b60006001600754610c219190612b66565b905090565b6060610c3182611041565b506000610c3c6118a6565b90506000815111610c5c5760405180602001604052806000815250610c87565b80610c66846118bd565b604051602001610c77929190612bd6565b6040516020818303038152906040525b915050919050565b610c97611e65565b600060086000848152602001908152602001600020604051806080016040529081600082018054610cc790612777565b80601f0160208091040260200160405190810160405280929190818152602001828054610cf390612777565b8015610d405780601f10610d1557610100808354040283529160200191610d40565b820191906000526020600020905b815481529060010190602001808311610d2357829003601f168201915b50505050508152602001600182018054610d5990612777565b80601f0160208091040260200160405190810160405280929190818152602001828054610d8590612777565b8015610dd25780601f10610da757610100808354040283529160200191610dd2565b820191906000526020600020905b815481529060010190602001808311610db557829003601f168201915b505050505081526020016002820160009054906101000a900473ffffffffffffffffffffffffffffffffffffffff1673ffffffffffffffffffffffffffffffffffffffff1673ffffffffffffffffffffffffffffffffffffffff1681526020016003820154815250509050600073ffffffffffffffffffffffffffffffffffffffff16610e5e84610849565b73ffffffffffffffffffffffffffffffffffffffff1603610eb4576040517f08c379a0000000000000000000000000000000000000000000000000000000008152600401610eab90612c46565b60405180910390fd5b80915050919050565b6000600560008473ffffffffffffffffffffffffffffffffffffffff1673ffffffffffffffffffffffffffffffffffffffff16815260200190815260200160002060008373ffffffffffffffffffffffffffffffffffffffff1673ffffffffffffffffffffffffffffffffffffffff16815260200190815260200160002060009054906101000a900460ff16905092915050565b610f5961133a565b600073ffffffffffffffffffffffffffffffffffffffff168173ffffffffffffffffffffffffffffffffffffffff1603610fcb5760006040517f1e4fbdf7000000000000000000000000000000000000000000000000000000008152600401610fc291906120c8565b60405180910390fd5b610fd4816113c1565b50565b60007f01ffc9a7000000000000000000000000000000000000000000000000000000007bffffffffffffffffffffffffffffffffffffffffffffffffffffffff1916827bffffffffffffffffffffffffffffffffffffffffffffffffffffffff1916149050919050565b60008061104d8361198b565b9050600073ffffffffffffffffffffffffffffffffffffffff168173ffffffffffffffffffffffffffffffffffffffff16036110c057826040517f7e2732890000000000000000000000000000000000000000000000000000000081526004016110b79190612231565b60405180910390fd5b80915050919050565b60006004600083815260200190815260200160002060009054906101000a900473ffffffffffffffffffffffffffffffffffffffff169050919050565b600033905090565b61111b83838360016119c8565b505050565b60008061112c8461198b565b9050600073ffffffffffffffffffffffffffffffffffffffff168373ffffffffffffffffffffffffffffffffffffffff161461116e5761116d818486611b8d565b5b600073ffffffffffffffffffffffffffffffffffffffff168173ffffffffffffffffffffffffffffffffffffffff16146111ff576111b06000856000806119c8565b6001600360008373ffffffffffffffffffffffffffffffffffffffff1673ffffffffffffffffffffffffffffffffffffffff168152602001908152602001600020600082825403925050819055505b600073ffffffffffffffffffffffffffffffffffffffff168573ffffffffffffffffffffffffffffffffffffffff1614611282576001600360008773ffffffffffffffffffffffffffffffffffffffff1673ffffffffffffffffffffffffffffffffffffffff168152602001908152602001600020600082825401925050819055505b846002600086815260200190815260200160002060006101000a81548173ffffffffffffffffffffffffffffffffffffffff021916908373ffffffffffffffffffffffffffffffffffffffff160217905550838573ffffffffffffffffffffffffffffffffffffffff168273ffffffffffffffffffffffffffffffffffffffff167fddf252ad1be2c89b69c2b068fc378daa952ba7f163c4a11628f55a4df523b3ef60405160405180910390a4809150509392505050565b611342611106565b73ffffffffffffffffffffffffffffffffffffffff166113606109f4565b73ffffffffffffffffffffffffffffffffffffffff16146113bf57611383611106565b6040517f118cdaa70000000000000000000000000000000000000000000000000000000081526004016113b691906120c8565b60405180910390fd5b565b6000600660009054906101000a900473ffffffffffffffffffffffffffffffffffffffff16905081600660006101000a81548173ffffffffffffffffffffffffffffffffffffffff021916908373ffffffffffffffffffffffffffffffffffffffff1602179055508173ffffffffffffffffffffffffffffffffffffffff168173ffffffffffffffffffffffffffffffffffffffff167f8be0079c531659141344cd1fd0a4f28419497f9722a3daafe3b4186f6b6457e060405160405180910390a35050565b600073ffffffffffffffffffffffffffffffffffffffff168273ffffffffffffffffffffffffffffffffffffffff16036114f857816040517f5b08ba180000000000000000000000000000000000000000000000000000000081526004016114ef91906120c8565b60405180910390fd5b80600560008573ffffffffffffffffffffffffffffffffffffffff1673ffffffffffffffffffffffffffffffffffffffff16815260200190815260200160002060008473ffffffffffffffffffffffffffffffffffffffff1673ffffffffffffffffffffffffffffffffffffffff16815260200190815260200160002060006101000a81548160ff0219169083151502179055508173ffffffffffffffffffffffffffffffffffffffff168373ffffffffffffffffffffffffffffffffffffffff167f17307eab39ab6107e8899845ad3d59bd9653f200f220920489ca2b5937696c31836040516115e99190611f57565b60405180910390a3505050565b600073ffffffffffffffffffffffffffffffffffffffff168273ffffffffffffffffffffffffffffffffffffffff16036116685760006040517f64a0ae9200000000000000000000000000000000000000000000000000000000815260040161165f91906120c8565b60405180910390fd5b600061167683836000611120565b9050600073ffffffffffffffffffffffffffffffffffffffff168173ffffffffffffffffffffffffffffffffffffffff16146116ea5760006040517f73c6ac6e0000000000000000000000000000000000000000000000000000000081526004016116e191906120c8565b60405180910390fd5b505050565b60008373ffffffffffffffffffffffffffffffffffffffff163b11156118a0578273ffffffffffffffffffffffffffffffffffffffff1663150b7a02611733611106565b8685856040518563ffffffff1660e01b81526004016117559493929190612cbb565b6020604051808303816000875af192505050801561179157506040513d601f19601f8201168201806040525081019061178e9190612d1c565b60015b611815573d80600081146117c1576040519150601f19603f3d011682016040523d82523d6000602084013e6117c6565b606091505b50600081510361180d57836040517f64a0ae9200000000000000000000000000000000000000000000000000000000815260040161180491906120c8565b60405180910390fd5b805181602001fd5b63150b7a0260e01b7bffffffffffffffffffffffffffffffffffffffffffffffffffffffff1916817bffffffffffffffffffffffffffffffffffffffffffffffffffffffff19161461189e57836040517f64a0ae9200000000000000000000000000000000000000000000000000000000815260040161189591906120c8565b60405180910390fd5b505b50505050565b606060405180602001604052806000815250905090565b6060600060016118cc84611c51565b01905060008167ffffffffffffffff8111156118eb576118ea612256565b5b6040519080825280601f01601f19166020018201604052801561191d5781602001600182028036833780820191505090505b509050600082602001820190505b600115611980578080600190039150507f3031323334353637383961626364656600000000000000000000000000000000600a86061a8153600a858161197457611973612d49565b5b0494506000850361192b575b819350505050919050565b60006002600083815260200190815260200160002060009054906101000a900473ffffffffffffffffffffffffffffffffffffffff169050919050565b8080611a015750600073ffffffffffffffffffffffffffffffffffffffff168273ffffffffffffffffffffffffffffffffffffffff1614155b15611b35576000611a1184611041565b9050600073ffffffffffffffffffffffffffffffffffffffff168373ffffffffffffffffffffffffffffffffffffffff1614158015611a7c57508273ffffffffffffffffffffffffffffffffffffffff168173ffffffffffffffffffffffffffffffffffffffff1614155b8015611a8f5750611a8d8184610ebd565b155b15611ad157826040517fa9fbf51f000000000000000000000000000000000000000000000000000000008152600401611ac891906120c8565b60405180910390fd5b8115611b3357838573ffffffffffffffffffffffffffffffffffffffff168273ffffffffffffffffffffffffffffffffffffffff167f8c5be1e5ebec7d5bd14f71427d1e84f3dd0314c0f7b2291e5b200ac8c7c3b92560405160405180910390a45b505b836004600085815260200190815260200160002060006101000a81548173ffffffffffffffffffffffffffffffffffffffff021916908373ffffffffffffffffffffffffffffffffffffffff16021790555050505050565b611b98838383611da4565b611c4c57600073ffffffffffffffffffffffffffffffffffffffff168373ffffffffffffffffffffffffffffffffffffffff1603611c0d57806040517f7e273289000000000000000000000000000000000000000000000000000000008152600401611c049190612231565b60405180910390fd5b81816040517f177e802f000000000000000000000000000000000000000000000000000000008152600401611c43929190612d78565b60405180910390fd5b505050565b600080600090507a184f03e93ff9f4daa797ed6e38ed64bf6a1f0100000000000000008310611caf577a184f03e93ff9f4daa797ed6e38ed64bf6a1f0100000000000000008381611ca557611ca4612d49565b5b0492506040810190505b6d04ee2d6d415b85acef81000000008310611cec576d04ee2d6d415b85acef81000000008381611ce257611ce1612d49565b5b0492506020810190505b662386f26fc100008310611d1b57662386f26fc100008381611d1157611d10612d49565b5b0492506010810190505b6305f5e1008310611d44576305f5e1008381611d3a57611d39612d49565b5b0492506008810190505b6127108310611d69576127108381611d5f57611d5e612d49565b5b0492506004810190505b60648310611d8c5760648381611d8257611d81612d49565b5b0492506002810190505b600a8310611d9b576001810190505b80915050919050565b60008073ffffffffffffffffffffffffffffffffffffffff168373ffffffffffffffffffffffffffffffffffffffff1614158015611e5c57508273ffffffffffffffffffffffffffffffffffffffff168473ffffffffffffffffffffffffffffffffffffffff161480611e1d5750611e1c8484610ebd565b5b80611e5b57508273ffffffffffffffffffffffffffffffffffffffff16611e43836110c9565b73ffffffffffffffffffffffffffffffffffffffff16145b5b90509392505050565b60405180608001604052806060815260200160608152602001600073ffffffffffffffffffffffffffffffffffffffff168152602001600081525090565b6000604051905090565b600080fd5b600080fd5b60007fffffffff0000000000000000000000000000000000000000000000000000000082169050919050565b611eec81611eb7565b8114611ef757600080fd5b50565b600081359050611f0981611ee3565b92915050565b600060208284031215611f2557611f24611ead565b5b6000611f3384828501611efa565b91505092915050565b60008115159050919050565b611f5181611f3c565b82525050565b6000602082019050611f6c6000830184611f48565b92915050565b600081519050919050565b600082825260208201905092915050565b60005b83811015611fac578082015181840152602081019050611f91565b60008484015250505050565b6000601f19601f8301169050919050565b6000611fd482611f72565b611fde8185611f7d565b9350611fee818560208601611f8e565b611ff781611fb8565b840191505092915050565b6000602082019050818103600083015261201c8184611fc9565b905092915050565b6000819050919050565b61203781612024565b811461204257600080fd5b50565b6000813590506120548161202e565b92915050565b6000602082840312156120705761206f611ead565b5b600061207e84828501612045565b91505092915050565b600073ffffffffffffffffffffffffffffffffffffffff82169050919050565b60006120b282612087565b9050919050565b6120c2816120a7565b82525050565b60006020820190506120dd60008301846120b9565b92915050565b6120ec816120a7565b81146120f757600080fd5b50565b600081359050612109816120e3565b92915050565b6000806040838503121561212657612125611ead565b5b6000612134858286016120fa565b925050602061214585828601612045565b9150509250929050565b60008060006060848603121561216857612167611ead565b5b6000612176868287016120fa565b9350506020612187868287016120fa565b925050604061219886828701612045565b9150509250925092565b6121ab81612024565b82525050565b600060808201905081810360008301526121cb8187611fc9565b905081810360208301526121df8186611fc9565b90506121ee60408301856120b9565b6121fb60608301846121a2565b95945050505050565b60006020828403121561221a57612219611ead565b5b6000612228848285016120fa565b91505092915050565b600060208201905061224660008301846121a2565b92915050565b600080fd5b600080fd5b7f4e487b7100000000000000000000000000000000000000000000000000000000600052604160045260246000fd5b61228e82611fb8565b810181811067ffffffffffffffff821117156122ad576122ac612256565b5b80604052505050565b60006122c0611ea3565b90506122cc8282612285565b919050565b600067ffffffffffffffff8211156122ec576122eb612256565b5b6122f582611fb8565b9050602081019050919050565b82818337600083830152505050565b600061232461231f846122d1565b6122b6565b9050828152602081018484840111156123405761233f612251565b5b61234b848285612302565b509392505050565b600082601f8301126123685761236761224c565b5b8135612378848260208601612311565b91505092915050565b60008060006060848603121561239a57612399611ead565b5b60006123a886828701612045565b935050602084013567ffffffffffffffff8111156123c9576123c8611eb2565b5b6123d586828701612353565b925050604084013567ffffffffffffffff8111156123f6576123f5611eb2565b5b61240286828701612353565b9150509250925092565b61241581611f3c565b811461242057600080fd5b50565b6000813590506124328161240c565b92915050565b6000806040838503121561244f5761244e611ead565b5b600061245d858286016120fa565b925050602061246e85828601612423565b9150509250929050565b6000806040838503121561248f5761248e611ead565b5b600083013567ffffffffffffffff8111156124ad576124ac611eb2565b5b6124b985828601612353565b925050602083013567ffffffffffffffff8111156124da576124d9611eb2565b5b6124e685828601612353565b9150509250929050565b600067ffffffffffffffff82111561250b5761250a612256565b5b61251482611fb8565b9050602081019050919050565b600061253461252f846124f0565b6122b6565b9050828152602081018484840111156125505761254f612251565b5b61255b848285612302565b509392505050565b600082601f8301126125785761257761224c565b5b8135612588848260208601612521565b91505092915050565b600080600080608085870312156125ab576125aa611ead565b5b60006125b9878288016120fa565b94505060206125ca878288016120fa565b93505060406125db87828801612045565b925050606085013567ffffffffffffffff8111156125fc576125fb611eb2565b5b61260887828801612563565b91505092959194509250565b600082825260208201905092915050565b600061263082611f72565b61263a8185612614565b935061264a818560208601611f8e565b61265381611fb8565b840191505092915050565b612667816120a7565b82525050565b61267681612024565b82525050565b600060808301600083015184820360008601526126998282612625565b915050602083015184820360208601526126b38282612625565b91505060408301516126c8604086018261265e565b5060608301516126db606086018261266d565b508091505092915050565b60006020820190508181036000830152612700818461267c565b905092915050565b6000806040838503121561271f5761271e611ead565b5b600061272d858286016120fa565b925050602061273e858286016120fa565b9150509250929050565b7f4e487b7100000000000000000000000000000000000000000000000000000000600052602260045260246000fd5b6000600282049050600182168061278f57607f821691505b6020821081036127a2576127a1612748565b5b50919050565b60006060820190506127bd60008301866120b9565b6127ca60208301856121a2565b6127d760408301846120b9565b949350505050565b7f4f6e6c7920746865206f776e65722063616e207570646174652074686520657660008201527f6964656e63650000000000000000000000000000000000000000000000000000602082015250565b600061283b602683611f7d565b9150612846826127df565b604082019050919050565b6000602082019050818103600083015261286a8161282e565b9050919050565b60008190508160005260206000209050919050565b60006020601f8301049050919050565b600082821b905092915050565b6000600883026128d37fffffffffffffffffffffffffffffffffffffffffffffffffffffffffffffffff82612896565b6128dd8683612896565b95508019841693508086168417925050509392505050565b6000819050919050565b600061291a61291561291084612024565b6128f5565b612024565b9050919050565b6000819050919050565b612934836128ff565b61294861294082612921565b8484546128a3565b825550505050565b600090565b61295d612950565b61296881848461292b565b505050565b5b8181101561298c57612981600082612955565b60018101905061296e565b5050565b601f8211156129d1576129a281612871565b6129ab84612886565b810160208510156129ba578190505b6129ce6129c685612886565b83018261296d565b50505b505050565b600082821c905092915050565b60006129f4600019846008026129d6565b1980831691505092915050565b6000612a0d83836129e3565b9150826002028217905092915050565b612a2682611f72565b67ffffffffffffffff811115612a3f57612a3e612256565b5b612a498254612777565b612a54828285612990565b600060209050601f831160018114612a875760008415612a75578287015190505b612a7f8582612a01565b865550612ae7565b601f198416612a9586612871565b60005b82811015612abd57848901518255600182019150602085019450602081019050612a98565b86831015612ada5784890151612ad6601f8916826129e3565b8355505b6001600288020188555050505b505050505050565b7f4e487b7100000000000000000000000000000000000000000000000000000000600052601160045260246000fd5b6000612b2982612024565b91507fffffffffffffffffffffffffffffffffffffffffffffffffffffffffffffffff8203612b5b57612b5a612aef565b5b600182019050919050565b6000612b7182612024565b9150612b7c83612024565b9250828203905081811115612b9457612b93612aef565b5b92915050565b600081905092915050565b6000612bb082611f72565b612bba8185612b9a565b9350612bca818560208601611f8e565b80840191505092915050565b6000612be28285612ba5565b9150612bee8284612ba5565b91508190509392505050565b7f45766964656e636520646f6573206e6f74206578697374000000000000000000600082015250565b6000612c30601783611f7d565b9150612c3b82612bfa565b602082019050919050565b60006020820190508181036000830152612c5f81612c23565b9050919050565b600081519050919050565b600082825260208201905092915050565b6000612c8d82612c66565b612c978185612c71565b9350612ca7818560208601611f8e565b612cb081611fb8565b840191505092915050565b6000608082019050612cd060008301876120b9565b612cdd60208301866120b9565b612cea60408301856121a2565b8181036060830152612cfc8184612c82565b905095945050505050565b600081519050612d1681611ee3565b92915050565b600060208284031215612d3257612d31611ead565b5b6000612d4084828501612d07565b91505092915050565b7f4e487b7100000000000000000000000000000000000000000000000000000000600052601260045260246000fd5b6000604082019050612d8d60008301856120b9565b612d9a60208301846121a2565b939250505056fea2646970667358221220a6aa10b8de4aaab1834a517693f25ddde73914d6786c54f0fb362e48a8ec28a464736f6c63430008140033",
  "linkReferences": {},
  "deployedLinkReferences": {}
}