{
  "_format": "hh-sol-artifact-1",
  "contractName": "IdentityContract",
  "sourceName": "contracts/IdentityContract.sol",
  "abi": [
    {
      "anonymous": false,
      "inputs": [
        {
          "indexed": true,
          "internalType": "uint256",
          "name": "identifier",
          "type": "uint256"
        },
        {
          "indexed": false,
          "internalType": "string",
          "name": "fullName",
          "type": "string"
        }
      ],
      "name": "IdentityCreated",
      "type": "event"
    },
    {
      "inputs": [
        {
          "internalType": "string",
          "name": "_fullName",
          "type": "string"
        },
        {
          "internalType": "string",
          "name": "_Alias",
          "type": "string"
        },
        {
          "internalType": "uint256[]",
          "name": "_crimesInvolved",
          "type": "uint256[]"
        },
        {
          "internalType": "uint256",
          "name": "_age",
          "type": "uint256"
        },
        {
          "internalType": "string",
          "name": "_gender",
          "type": "string"
        },
        {
          "internalType": "string",
          "name": "_image",
          "type": "string"
        },
        {
          "internalType": "string",
          "name": "_location",
          "type": "string"
        },
        {
          "internalType": "string",
          "name": "_otherDetails",
          "type": "string"
        }
      ],
      "name": "createIdentity",
      "outputs": [],
      "stateMutability": "nonpayable",
      "type": "function"
    },
    {
      "inputs": [
        {
          "internalType": "uint256",
          "name": "_identifier",
          "type": "uint256"
        }
      ],
      "name": "getIdentity",
      "outputs": [
        {
          "components": [
            {
              "internalType": "string",
              "name": "fullName",
              "type": "string"
            },
            {
              "internalType": "string",
              "name": "Alias",
              "type": "string"
            },
            {
              "internalType": "uint256[]",
              "name": "crimesInvolved",
              "type": "uint256[]"
            },
            {
              "internalType": "uint256",
              "name": "age",
              "type": "uint256"
            },
            {
              "internalType": "string",
              "name": "gender",
              "type": "string"
            },
            {
              "internalType": "string",
              "name": "image",
              "type": "string"
            },
            {
              "internalType": "string",
              "name": "location",
              "type": "string"
            },
            {
              "internalType": "string",
              "name": "otherDetails",
              "type": "string"
            }
          ],
          "internalType": "struct IdentityContract.Identity",
          "name": "",
          "type": "tuple"
        }
      ],
      "stateMutability": "view",
      "type": "function"
    },
    {
      "inputs": [
        {
          "internalType": "uint256",
          "name": "",
          "type": "uint256"
        }
      ],
      "name": "identities",
      "outputs": [
        {
          "internalType": "string",
          "name": "fullName",
          "type": "string"
        },
        {
          "internalType": "string",
          "name": "Alias",
          "type": "string"
        },
        {
          "internalType": "uint256",
          "name": "age",
          "type": "uint256"
        },
        {
          "internalType": "string",
          "name": "gender",
          "type": "string"
        },
        {
          "internalType": "string",
          "name": "image",
          "type": "string"
        },
        {
          "internalType": "string",
          "name": "location",
          "type": "string"
        },
        {
          "internalType": "string",
          "name": "otherDetails",
          "type": "string"
        }
      ],
      "stateMutability": "view",
      "type": "function"
    },
    {
      "inputs": [
        {
          "internalType": "uint256",
          "name": "_identifier",
          "type": "uint256"
        },
        {
          "internalType": "string",
          "name": "_fullName",
          "type": "string"
        },
        {
          "internalType": "string",
          "name": "_Alias",
          "type": "string"
        },
        {
          "internalType": "uint256[]",
          "name": "_crimesInvolved",
          "type": "uint256[]"
        },
        {
          "internalType": "uint256",
          "name": "_age",
          "type": "uint256"
        },
        {
          "internalType": "string",
          "name": "_gender",
          "type": "string"
        },
        {
          "internalType": "string",
          "name": "_image",
          "type": "string"
        },
        {
          "internalType": "string",
          "name": "_location",
          "type": "string"
        },
        {
          "internalType": "string",
          "name": "_otherDetails",
          "type": "string"
        }
      ],
      "name": "updateIdentity",
      "outputs": [],
      "stateMutability": "nonpayable",
      "type": "function"
    }
  ],
  "bytecode": "0x6080604052600160005534801561001557600080fd5b506117f5806100256000396000f3fe608060405234801561001057600080fd5b506004361061004c5760003560e01c80631cd6857f1461005157806385e3f0581461006d578063af827ec61461009d578063eaaf77e6146100b9575b600080fd5b61006b60048036038101906100669190610de8565b6100ef565b005b61008760048036038101906100829190610f76565b610218565b60405161009491906111ba565b60405180910390f35b6100b760048036038101906100b291906111dc565b610614565b005b6100d360048036038101906100ce9190610f76565b61076f565b6040516100e697969594939291906113af565b60405180910390f35b87600160008b815260200190815260200160002060000190816101129190611654565b5086600160008b815260200190815260200160002060010190816101369190611654565b5085600160008b81526020019081526020016000206002019080519060200190610161929190610ae1565b5084600160008b81526020019081526020016000206003018190555083600160008b815260200190815260200160002060040190816101a09190611654565b5082600160008b815260200190815260200160002060050190816101c49190611654565b5081600160008b815260200190815260200160002060060190816101e89190611654565b5080600160008b8152602001908152602001600020600701908161020c9190611654565b50505050505050505050565b610220610b2e565b600160008381526020019081526020016000206040518061010001604052908160008201805461024f90611477565b80601f016020809104026020016040519081016040528092919081815260200182805461027b90611477565b80156102c85780601f1061029d576101008083540402835291602001916102c8565b820191906000526020600020905b8154815290600101906020018083116102ab57829003601f168201915b505050505081526020016001820180546102e190611477565b80601f016020809104026020016040519081016040528092919081815260200182805461030d90611477565b801561035a5780601f1061032f5761010080835404028352916020019161035a565b820191906000526020600020905b81548152906001019060200180831161033d57829003601f168201915b50505050508152602001600282018054806020026020016040519081016040528092919081815260200182805480156103b257602002820191906000526020600020905b81548152602001906001019080831161039e575b50505050508152602001600382015481526020016004820180546103d590611477565b80601f016020809104026020016040519081016040528092919081815260200182805461040190611477565b801561044e5780601f106104235761010080835404028352916020019161044e565b820191906000526020600020905b81548152906001019060200180831161043157829003601f168201915b5050505050815260200160058201805461046790611477565b80601f016020809104026020016040519081016040528092919081815260200182805461049390611477565b80156104e05780601f106104b5576101008083540402835291602001916104e0565b820191906000526020600020905b8154815290600101906020018083116104c357829003601f168201915b505050505081526020016006820180546104f990611477565b80601f016020809104026020016040519081016040528092919081815260200182805461052590611477565b80156105725780601f1061054757610100808354040283529160200191610572565b820191906000526020600020905b81548152906001019060200180831161055557829003601f168201915b5050505050815260200160078201805461058b90611477565b80601f01602080910402602001604051908101604052809291908181526020018280546105b790611477565b80156106045780601f106105d957610100808354040283529160200191610604565b820191906000526020600020905b8154815290600101906020018083116105e757829003601f168201915b5050505050815250509050919050565b6000805490506040518061010001604052808a81526020018981526020018881526020018781526020018681526020018581526020018481526020018381525060016000838152602001908152602001600020600082015181600001908161067c9190611654565b5060208201518160010190816106929190611654565b5060408201518160020190805190602001906106af929190610ae1565b506060820151816003015560808201518160040190816106cf9190611654565b5060a08201518160050190816106e59190611654565b5060c08201518160060190816106fb9190611654565b5060e08201518160070190816107119190611654565b50905050807f4290f71914dcf8182476738a2384a4dd66e73ab62d8f69b5d2d6216c4a0f89b58a6040516107459190611726565b60405180910390a260008081548092919061075f90611777565b9190505550505050505050505050565b600160205280600052604060002060009150905080600001805461079290611477565b80601f01602080910402602001604051908101604052809291908181526020018280546107be90611477565b801561080b5780601f106107e05761010080835404028352916020019161080b565b820191906000526020600020905b8154815290600101906020018083116107ee57829003601f168201915b50505050509080600101805461082090611477565b80601f016020809104026020016040519081016040528092919081815260200182805461084c90611477565b80156108995780601f1061086e57610100808354040283529160200191610899565b820191906000526020600020905b81548152906001019060200180831161087c57829003601f168201915b5050505050908060030154908060040180546108b490611477565b80601f01602080910402602001604051908101604052809291908181526020018280546108e090611477565b801561092d5780601f106109025761010080835404028352916020019161092d565b820191906000526020600020905b81548152906001019060200180831161091057829003601f168201915b50505050509080600501805461094290611477565b80601f016020809104026020016040519081016040528092919081815260200182805461096e90611477565b80156109bb5780601f10610990576101008083540402835291602001916109bb565b820191906000526020600020905b81548152906001019060200180831161099e57829003601f168201915b5050505050908060060180546109d090611477565b80601f01602080910402602001604051908101604052809291908181526020018280546109fc90611477565b8015610a495780601f10610a1e57610100808354040283529160200191610a49565b820191906000526020600020905b815481529060010190602001808311610a2c57829003601f168201915b505050505090806007018054610a5e90611477565b80601f0160208091040260200160405190810160405280929190818152602001828054610a8a90611477565b8015610ad75780601f10610aac57610100808354040283529160200191610ad7565b820191906000526020600020905b815481529060010190602001808311610aba57829003601f168201915b5050505050905087565b828054828255906000526020600020908101928215610b1d579160200282015b82811115610b1c578251825591602001919060010190610b01565b5b509050610b2a9190610b73565b5090565b60405180610100016040528060608152602001606081526020016060815260200160008152602001606081526020016060815260200160608152602001606081525090565b5b80821115610b8c576000816000905550600101610b74565b5090565b6000604051905090565b600080fd5b600080fd5b6000819050919050565b610bb781610ba4565b8114610bc257600080fd5b50565b600081359050610bd481610bae565b92915050565b600080fd5b600080fd5b6000601f19601f8301169050919050565b7f4e487b7100000000000000000000000000000000000000000000000000000000600052604160045260246000fd5b610c2d82610be4565b810181811067ffffffffffffffff82111715610c4c57610c4b610bf5565b5b80604052505050565b6000610c5f610b90565b9050610c6b8282610c24565b919050565b600067ffffffffffffffff821115610c8b57610c8a610bf5565b5b610c9482610be4565b9050602081019050919050565b82818337600083830152505050565b6000610cc3610cbe84610c70565b610c55565b905082815260208101848484011115610cdf57610cde610bdf565b5b610cea848285610ca1565b509392505050565b600082601f830112610d0757610d06610bda565b5b8135610d17848260208601610cb0565b91505092915050565b600067ffffffffffffffff821115610d3b57610d3a610bf5565b5b602082029050602081019050919050565b600080fd5b6000610d64610d5f84610d20565b610c55565b90508083825260208201905060208402830185811115610d8757610d86610d4c565b5b835b81811015610db05780610d9c8882610bc5565b845260208401935050602081019050610d89565b5050509392505050565b600082601f830112610dcf57610dce610bda565b5b8135610ddf848260208601610d51565b91505092915050565b60008060008060008060008060006101208a8c031215610e0b57610e0a610b9a565b5b6000610e198c828d01610bc5565b99505060208a013567ffffffffffffffff811115610e3a57610e39610b9f565b5b610e468c828d01610cf2565b98505060408a013567ffffffffffffffff811115610e6757610e66610b9f565b5b610e738c828d01610cf2565b97505060608a013567ffffffffffffffff811115610e9457610e93610b9f565b5b610ea08c828d01610dba565b9650506080610eb18c828d01610bc5565b95505060a08a013567ffffffffffffffff811115610ed257610ed1610b9f565b5b610ede8c828d01610cf2565b94505060c08a013567ffffffffffffffff811115610eff57610efe610b9f565b5b610f0b8c828d01610cf2565b93505060e08a013567ffffffffffffffff811115610f2c57610f2b610b9f565b5b610f388c828d01610cf2565b9250506101008a013567ffffffffffffffff811115610f5a57610f59610b9f565b5b610f668c828d01610cf2565b9150509295985092959850929598565b600060208284031215610f8c57610f8b610b9a565b5b6000610f9a84828501610bc5565b91505092915050565b600081519050919050565b600082825260208201905092915050565b60005b83811015610fdd578082015181840152602081019050610fc2565b60008484015250505050565b6000610ff482610fa3565b610ffe8185610fae565b935061100e818560208601610fbf565b61101781610be4565b840191505092915050565b600081519050919050565b600082825260208201905092915050565b6000819050602082019050919050565b61105781610ba4565b82525050565b6000611069838361104e565b60208301905092915050565b6000602082019050919050565b600061108d82611022565b611097818561102d565b93506110a28361103e565b8060005b838110156110d35781516110ba888261105d565b97506110c583611075565b9250506001810190506110a6565b5085935050505092915050565b60006101008301600083015184820360008601526110fe8282610fe9565b915050602083015184820360208601526111188282610fe9565b915050604083015184820360408601526111328282611082565b9150506060830151611147606086018261104e565b506080830151848203608086015261115f8282610fe9565b91505060a083015184820360a08601526111798282610fe9565b91505060c083015184820360c08601526111938282610fe9565b91505060e083015184820360e08601526111ad8282610fe9565b9150508091505092915050565b600060208201905081810360008301526111d481846110e0565b905092915050565b600080600080600080600080610100898b0312156111fd576111fc610b9a565b5b600089013567ffffffffffffffff81111561121b5761121a610b9f565b5b6112278b828c01610cf2565b985050602089013567ffffffffffffffff81111561124857611247610b9f565b5b6112548b828c01610cf2565b975050604089013567ffffffffffffffff81111561127557611274610b9f565b5b6112818b828c01610dba565b96505060606112928b828c01610bc5565b955050608089013567ffffffffffffffff8111156112b3576112b2610b9f565b5b6112bf8b828c01610cf2565b94505060a089013567ffffffffffffffff8111156112e0576112df610b9f565b5b6112ec8b828c01610cf2565b93505060c089013567ffffffffffffffff81111561130d5761130c610b9f565b5b6113198b828c01610cf2565b92505060e089013567ffffffffffffffff81111561133a57611339610b9f565b5b6113468b828c01610cf2565b9150509295985092959890939650565b600082825260208201905092915050565b600061137282610fa3565b61137c8185611356565b935061138c818560208601610fbf565b61139581610be4565b840191505092915050565b6113a981610ba4565b82525050565b600060e08201905081810360008301526113c9818a611367565b905081810360208301526113dd8189611367565b90506113ec60408301886113a0565b81810360608301526113fe8187611367565b905081810360808301526114128186611367565b905081810360a08301526114268185611367565b905081810360c083015261143a8184611367565b905098975050505050505050565b7f4e487b7100000000000000000000000000000000000000000000000000000000600052602260045260246000fd5b6000600282049050600182168061148f57607f821691505b6020821081036114a2576114a1611448565b5b50919050565b60008190508160005260206000209050919050565b60006020601f8301049050919050565b600082821b905092915050565b60006008830261150a7fffffffffffffffffffffffffffffffffffffffffffffffffffffffffffffffff826114cd565b61151486836114cd565b95508019841693508086168417925050509392505050565b6000819050919050565b600061155161154c61154784610ba4565b61152c565b610ba4565b9050919050565b6000819050919050565b61156b83611536565b61157f61157782611558565b8484546114da565b825550505050565b600090565b611594611587565b61159f818484611562565b505050565b5b818110156115c3576115b860008261158c565b6001810190506115a5565b5050565b601f821115611608576115d9816114a8565b6115e2846114bd565b810160208510156115f1578190505b6116056115fd856114bd565b8301826115a4565b50505b505050565b600082821c905092915050565b600061162b6000198460080261160d565b1980831691505092915050565b6000611644838361161a565b9150826002028217905092915050565b61165d82610fa3565b67ffffffffffffffff81111561167657611675610bf5565b5b6116808254611477565b61168b8282856115c7565b600060209050601f8311600181146116be57600084156116ac578287015190505b6116b68582611638565b86555061171e565b601f1984166116cc866114a8565b60005b828110156116f4578489015182556001820191506020850194506020810190506116cf565b86831015611711578489015161170d601f89168261161a565b8355505b6001600288020188555050505b505050505050565b600060208201905081810360008301526117408184611367565b905092915050565b7f4e487b7100000000000000000000000000000000000000000000000000000000600052601160045260246000fd5b600061178282610ba4565b91507fffffffffffffffffffffffffffffffffffffffffffffffffffffffffffffffff82036117b4576117b3611748565b5b60018201905091905056fea2646970667358221220943f38ce0b0dc3a03e9ace6f0e5c41f26744c6c5d6c2d286bac31ce46b3f97e864736f6c63430008140033",
  "linkReferences": {},
  "deployedLinkReferences": {}
}