{
  "_format": "hh-sol-artifact-1",
  "contractName": "UserContract",
  "sourceName": "contracts/UserContract.sol",
  "abi": [
    {
      "anonymous": false,
      "inputs": [
        {
          "indexed": true,
          "internalType": "address",
          "name": "userAddress",
          "type": "address"
        },
        {
          "indexed": false,
          "internalType": "string",
          "name": "fullName",
          "type": "string"
        }
      ],
      "name": "UserCreated",
      "type": "event"
    },
    {
      "inputs": [
        {
          "internalType": "string",
          "name": "_fullName",
          "type": "string"
        },
        {
          "internalType": "uint256",
          "name": "_age",
          "type": "uint256"
        },
        {
          "internalType": "string",
          "name": "_image",
          "type": "string"
        },
        {
          "internalType": "string",
          "name": "_gender",
          "type": "string"
        },
        {
          "internalType": "string",
          "name": "_department",
          "type": "string"
        },
        {
          "internalType": "address",
          "name": "_walletAddress",
          "type": "address"
        }
      ],
      "name": "createUser",
      "outputs": [],
      "stateMutability": "nonpayable",
      "type": "function"
    },
    {
      "inputs": [
        {
          "internalType": "address",
          "name": "_userAddress",
          "type": "address"
        }
      ],
      "name": "getUser",
      "outputs": [
        {
          "components": [
            {
              "internalType": "string",
              "name": "fullName",
              "type": "string"
            },
            {
              "internalType": "uint256",
              "name": "age",
              "type": "uint256"
            },
            {
              "internalType": "string",
              "name": "gender",
              "type": "string"
            },
            {
              "internalType": "string",
              "name": "department",
              "type": "string"
            },
            {
              "internalType": "address",
              "name": "walletAddress",
              "type": "address"
            },
            {
              "internalType": "string",
              "name": "image",
              "type": "string"
            }
          ],
          "internalType": "struct UserContract.User",
          "name": "",
          "type": "tuple"
        }
      ],
      "stateMutability": "view",
      "type": "function"
    },
    {
      "inputs": [
        {
          "internalType": "address",
          "name": "_userAddress",
          "type": "address"
        }
      ],
      "name": "isRegisteredUser",
      "outputs": [
        {
          "internalType": "bool",
          "name": "",
          "type": "bool"
        }
      ],
      "stateMutability": "view",
      "type": "function"
    },
    {
      "inputs": [
        {
          "internalType": "address",
          "name": "",
          "type": "address"
        }
      ],
      "name": "users",
      "outputs": [
        {
          "internalType": "string",
          "name": "fullName",
          "type": "string"
        },
        {
          "internalType": "uint256",
          "name": "age",
          "type": "uint256"
        },
        {
          "internalType": "string",
          "name": "gender",
          "type": "string"
        },
        {
          "internalType": "string",
          "name": "department",
          "type": "string"
        },
        {
          "internalType": "address",
          "name": "walletAddress",
          "type": "address"
        },
        {
          "internalType": "string",
          "name": "image",
          "type": "string"
        }
      ],
      "stateMutability": "view",
      "type": "function"
    }
  ],
  "bytecode": "0x608060405234801561001057600080fd5b506111ad806100206000396000f3fe608060405234801561001057600080fd5b506004361061004c5760003560e01c80631f5bdf5d146100515780636f77926b14610081578063a87430ba146100b1578063b56a4a26146100e6575b600080fd5b61006b60048036038101906100669190610959565b610102565b60405161007891906109a1565b60405180910390f35b61009b60048036038101906100969190610959565b61019c565b6040516100a89190610b12565b60405180910390f35b6100cb60048036038101906100c69190610959565b61049c565b6040516100dd96959493929190610b9c565b60405180910390f35b61010060048036038101906100fb9190610d7a565b610718565b005b60008073ffffffffffffffffffffffffffffffffffffffff166000808473ffffffffffffffffffffffffffffffffffffffff1673ffffffffffffffffffffffffffffffffffffffff16815260200190815260200160002060040160009054906101000a900473ffffffffffffffffffffffffffffffffffffffff1673ffffffffffffffffffffffffffffffffffffffff1614159050919050565b6101a461089b565b6000808373ffffffffffffffffffffffffffffffffffffffff1673ffffffffffffffffffffffffffffffffffffffff1681526020019081526020016000206040518060c00160405290816000820180546101fd90610ea6565b80601f016020809104026020016040519081016040528092919081815260200182805461022990610ea6565b80156102765780601f1061024b57610100808354040283529160200191610276565b820191906000526020600020905b81548152906001019060200180831161025957829003601f168201915b505050505081526020016001820154815260200160028201805461029990610ea6565b80601f01602080910402602001604051908101604052809291908181526020018280546102c590610ea6565b80156103125780601f106102e757610100808354040283529160200191610312565b820191906000526020600020905b8154815290600101906020018083116102f557829003601f168201915b5050505050815260200160038201805461032b90610ea6565b80601f016020809104026020016040519081016040528092919081815260200182805461035790610ea6565b80156103a45780601f10610379576101008083540402835291602001916103a4565b820191906000526020600020905b81548152906001019060200180831161038757829003601f168201915b505050505081526020016004820160009054906101000a900473ffffffffffffffffffffffffffffffffffffffff1673ffffffffffffffffffffffffffffffffffffffff1673ffffffffffffffffffffffffffffffffffffffff16815260200160058201805461041390610ea6565b80601f016020809104026020016040519081016040528092919081815260200182805461043f90610ea6565b801561048c5780601f106104615761010080835404028352916020019161048c565b820191906000526020600020905b81548152906001019060200180831161046f57829003601f168201915b5050505050815250509050919050565b60006020528060005260406000206000915090508060000180546104bf90610ea6565b80601f01602080910402602001604051908101604052809291908181526020018280546104eb90610ea6565b80156105385780601f1061050d57610100808354040283529160200191610538565b820191906000526020600020905b81548152906001019060200180831161051b57829003601f168201915b50505050509080600101549080600201805461055390610ea6565b80601f016020809104026020016040519081016040528092919081815260200182805461057f90610ea6565b80156105cc5780601f106105a1576101008083540402835291602001916105cc565b820191906000526020600020905b8154815290600101906020018083116105af57829003601f168201915b5050505050908060030180546105e190610ea6565b80601f016020809104026020016040519081016040528092919081815260200182805461060d90610ea6565b801561065a5780601f1061062f5761010080835404028352916020019161065a565b820191906000526020600020905b81548152906001019060200180831161063d57829003601f168201915b5050505050908060040160009054906101000a900473ffffffffffffffffffffffffffffffffffffffff169080600501805461069590610ea6565b80601f01602080910402602001604051908101604052809291908181526020018280546106c190610ea6565b801561070e5780601f106106e35761010080835404028352916020019161070e565b820191906000526020600020905b8154815290600101906020018083116106f157829003601f168201915b5050505050905086565b6040518060c001604052808781526020018681526020018481526020018381526020018273ffffffffffffffffffffffffffffffffffffffff168152602001858152506000808373ffffffffffffffffffffffffffffffffffffffff1673ffffffffffffffffffffffffffffffffffffffff16815260200190815260200160002060008201518160000190816107ae9190611083565b506020820151816001015560408201518160020190816107ce9190611083565b5060608201518160030190816107e49190611083565b5060808201518160040160006101000a81548173ffffffffffffffffffffffffffffffffffffffff021916908373ffffffffffffffffffffffffffffffffffffffff16021790555060a08201518160050190816108419190611083565b509050503373ffffffffffffffffffffffffffffffffffffffff167f9954bce02f72fbdef0fa668ac6f42e434b5829615dac2fb22448054d2359d4f68760405161088b9190611155565b60405180910390a2505050505050565b6040518060c0016040528060608152602001600081526020016060815260200160608152602001600073ffffffffffffffffffffffffffffffffffffffff168152602001606081525090565b6000604051905090565b600080fd5b600080fd5b600073ffffffffffffffffffffffffffffffffffffffff82169050919050565b6000610926826108fb565b9050919050565b6109368161091b565b811461094157600080fd5b50565b6000813590506109538161092d565b92915050565b60006020828403121561096f5761096e6108f1565b5b600061097d84828501610944565b91505092915050565b60008115159050919050565b61099b81610986565b82525050565b60006020820190506109b66000830184610992565b92915050565b600081519050919050565b600082825260208201905092915050565b60005b838110156109f65780820151818401526020810190506109db565b60008484015250505050565b6000601f19601f8301169050919050565b6000610a1e826109bc565b610a2881856109c7565b9350610a388185602086016109d8565b610a4181610a02565b840191505092915050565b6000819050919050565b610a5f81610a4c565b82525050565b610a6e8161091b565b82525050565b600060c0830160008301518482036000860152610a918282610a13565b9150506020830151610aa66020860182610a56565b5060408301518482036040860152610abe8282610a13565b91505060608301518482036060860152610ad88282610a13565b9150506080830151610aed6080860182610a65565b5060a083015184820360a0860152610b058282610a13565b9150508091505092915050565b60006020820190508181036000830152610b2c8184610a74565b905092915050565b600082825260208201905092915050565b6000610b50826109bc565b610b5a8185610b34565b9350610b6a8185602086016109d8565b610b7381610a02565b840191505092915050565b610b8781610a4c565b82525050565b610b968161091b565b82525050565b600060c0820190508181036000830152610bb68189610b45565b9050610bc56020830188610b7e565b8181036040830152610bd78187610b45565b90508181036060830152610beb8186610b45565b9050610bfa6080830185610b8d565b81810360a0830152610c0c8184610b45565b9050979650505050505050565b600080fd5b600080fd5b7f4e487b7100000000000000000000000000000000000000000000000000000000600052604160045260246000fd5b610c5b82610a02565b810181811067ffffffffffffffff82111715610c7a57610c79610c23565b5b80604052505050565b6000610c8d6108e7565b9050610c998282610c52565b919050565b600067ffffffffffffffff821115610cb957610cb8610c23565b5b610cc282610a02565b9050602081019050919050565b82818337600083830152505050565b6000610cf1610cec84610c9e565b610c83565b905082815260208101848484011115610d0d57610d0c610c1e565b5b610d18848285610ccf565b509392505050565b600082601f830112610d3557610d34610c19565b5b8135610d45848260208601610cde565b91505092915050565b610d5781610a4c565b8114610d6257600080fd5b50565b600081359050610d7481610d4e565b92915050565b60008060008060008060c08789031215610d9757610d966108f1565b5b600087013567ffffffffffffffff811115610db557610db46108f6565b5b610dc189828a01610d20565b9650506020610dd289828a01610d65565b955050604087013567ffffffffffffffff811115610df357610df26108f6565b5b610dff89828a01610d20565b945050606087013567ffffffffffffffff811115610e2057610e1f6108f6565b5b610e2c89828a01610d20565b935050608087013567ffffffffffffffff811115610e4d57610e4c6108f6565b5b610e5989828a01610d20565b92505060a0610e6a89828a01610944565b9150509295509295509295565b7f4e487b7100000000000000000000000000000000000000000000000000000000600052602260045260246000fd5b60006002820490506001821680610ebe57607f821691505b602082108103610ed157610ed0610e77565b5b50919050565b60008190508160005260206000209050919050565b60006020601f8301049050919050565b600082821b905092915050565b600060088302610f397fffffffffffffffffffffffffffffffffffffffffffffffffffffffffffffffff82610efc565b610f438683610efc565b95508019841693508086168417925050509392505050565b6000819050919050565b6000610f80610f7b610f7684610a4c565b610f5b565b610a4c565b9050919050565b6000819050919050565b610f9a83610f65565b610fae610fa682610f87565b848454610f09565b825550505050565b600090565b610fc3610fb6565b610fce818484610f91565b505050565b5b81811015610ff257610fe7600082610fbb565b600181019050610fd4565b5050565b601f8211156110375761100881610ed7565b61101184610eec565b81016020851015611020578190505b61103461102c85610eec565b830182610fd3565b50505b505050565b600082821c905092915050565b600061105a6000198460080261103c565b1980831691505092915050565b60006110738383611049565b9150826002028217905092915050565b61108c826109bc565b67ffffffffffffffff8111156110a5576110a4610c23565b5b6110af8254610ea6565b6110ba828285610ff6565b600060209050601f8311600181146110ed57600084156110db578287015190505b6110e58582611067565b86555061114d565b601f1984166110fb86610ed7565b60005b82811015611123578489015182556001820191506020850194506020810190506110fe565b86831015611140578489015161113c601f891682611049565b8355505b6001600288020188555050505b505050505050565b6000602082019050818103600083015261116f8184610b45565b90509291505056fea2646970667358221220ce1f3f1c8a433a0ef062d95071941dfb41088a7a89c1515b61dc934e8d14dd3964736f6c63430008140033",
  "linkReferences": {},
  "deployedLinkReferences": {}
}